{
  "contractName": "Voting",
  "abi": [
    {
      "anonymous": false,
      "inputs": [
        {
          "indexed": true,
          "internalType": "address",
          "name": "previousOwner",
          "type": "address"
        },
        {
          "indexed": true,
          "internalType": "address",
          "name": "newOwner",
          "type": "address"
        }
      ],
      "name": "OwnershipTransferred",
      "type": "event"
    },
    {
      "anonymous": false,
      "inputs": [
        {
          "indexed": false,
          "internalType": "uint256",
          "name": "proposalId",
          "type": "uint256"
        }
      ],
      "name": "ProposalRegistered",
      "type": "event"
    },
    {
      "anonymous": false,
      "inputs": [
        {
          "indexed": false,
          "internalType": "address",
          "name": "voter",
          "type": "address"
        },
        {
          "indexed": false,
          "internalType": "uint256",
          "name": "proposalId",
          "type": "uint256"
        }
      ],
      "name": "Voted",
      "type": "event"
    },
    {
      "anonymous": false,
      "inputs": [
        {
          "indexed": false,
          "internalType": "address",
          "name": "voterAddress",
          "type": "address"
        }
      ],
      "name": "VoterRegistered",
      "type": "event"
    },
    {
      "anonymous": false,
      "inputs": [
        {
          "indexed": false,
          "internalType": "enum Voting.WorkflowStatus",
          "name": "previousStatus",
          "type": "uint8"
        },
        {
          "indexed": false,
          "internalType": "enum Voting.WorkflowStatus",
          "name": "newStatus",
          "type": "uint8"
        }
      ],
      "name": "WorkflowStatusChange",
      "type": "event"
    },
    {
      "inputs": [],
      "name": "owner",
      "outputs": [
        {
          "internalType": "address",
          "name": "",
          "type": "address"
        }
      ],
      "stateMutability": "view",
      "type": "function",
      "constant": true
    },
    {
      "inputs": [
        {
          "internalType": "uint256",
          "name": "",
          "type": "uint256"
        }
      ],
      "name": "proposals",
      "outputs": [
        {
          "internalType": "string",
          "name": "description",
          "type": "string"
        },
        {
          "internalType": "uint256",
          "name": "voteCount",
          "type": "uint256"
        }
      ],
      "stateMutability": "view",
      "type": "function",
      "constant": true
    },
    {
      "inputs": [],
      "name": "renounceOwnership",
      "outputs": [],
      "stateMutability": "nonpayable",
      "type": "function"
    },
    {
      "inputs": [],
      "name": "status",
      "outputs": [
        {
          "internalType": "enum Voting.WorkflowStatus",
          "name": "",
          "type": "uint8"
        }
      ],
      "stateMutability": "view",
      "type": "function",
      "constant": true
    },
    {
      "inputs": [
        {
          "internalType": "address",
          "name": "newOwner",
          "type": "address"
        }
      ],
      "name": "transferOwnership",
      "outputs": [],
      "stateMutability": "nonpayable",
      "type": "function"
    },
    {
      "inputs": [
        {
          "internalType": "enum Voting.WorkflowStatus",
          "name": "_newStatus",
          "type": "uint8"
        }
      ],
      "name": "changeStatus",
      "outputs": [],
      "stateMutability": "nonpayable",
      "type": "function"
    },
    {
      "inputs": [
        {
          "internalType": "address",
          "name": "_address",
          "type": "address"
        }
      ],
      "name": "registerVoter",
      "outputs": [],
      "stateMutability": "nonpayable",
      "type": "function"
    },
    {
      "inputs": [
        {
          "internalType": "string",
          "name": "_description",
          "type": "string"
        }
      ],
      "name": "proposalRegistration",
      "outputs": [],
      "stateMutability": "nonpayable",
      "type": "function"
    },
    {
      "inputs": [
        {
          "internalType": "uint256",
          "name": "_proposalId",
          "type": "uint256"
        }
      ],
      "name": "vote",
      "outputs": [],
      "stateMutability": "nonpayable",
      "type": "function"
    },
    {
      "inputs": [],
      "name": "tally",
      "outputs": [],
      "stateMutability": "nonpayable",
      "type": "function"
    },
    {
      "inputs": [],
      "name": "getWinner",
      "outputs": [
        {
          "internalType": "uint256",
          "name": "",
          "type": "uint256"
        }
      ],
      "stateMutability": "view",
      "type": "function",
      "constant": true
    },
    {
      "inputs": [],
      "name": "getProposals",
      "outputs": [
        {
          "components": [
            {
              "internalType": "string",
              "name": "description",
              "type": "string"
            },
            {
              "internalType": "uint256",
              "name": "voteCount",
              "type": "uint256"
            }
          ],
          "internalType": "struct Voting.Proposal[]",
          "name": "",
          "type": "tuple[]"
        }
      ],
      "stateMutability": "view",
      "type": "function",
      "constant": true
    },
    {
      "inputs": [
        {
          "internalType": "address",
          "name": "_address",
          "type": "address"
        }
      ],
      "name": "getVoter",
      "outputs": [
        {
          "components": [
            {
              "internalType": "bool",
              "name": "isRegistered",
              "type": "bool"
            },
            {
              "internalType": "bool",
              "name": "hasVoted",
              "type": "bool"
            },
            {
              "internalType": "uint256",
              "name": "votedProposalId",
              "type": "uint256"
            }
          ],
          "internalType": "struct Voting.Voter",
          "name": "",
          "type": "tuple"
        }
      ],
      "stateMutability": "view",
      "type": "function",
      "constant": true
    }
  ],
  "bytecode": "0x60806040526000600360006101000a81548160ff021916908360058111156200002d576200002c62000132565b5b02179055503480156200003f57600080fd5b5062000060620000546200006660201b60201c565b6200006e60201b60201c565b62000161565b600033905090565b60008060009054906101000a900473ffffffffffffffffffffffffffffffffffffffff169050816000806101000a81548173ffffffffffffffffffffffffffffffffffffffff021916908373ffffffffffffffffffffffffffffffffffffffff1602179055508173ffffffffffffffffffffffffffffffffffffffff168173ffffffffffffffffffffffffffffffffffffffff167f8be0079c531659141344cd1fd0a4f28419497f9722a3daafe3b4186f6b6457e060405160405180910390a35050565b7f4e487b7100000000000000000000000000000000000000000000000000000000600052602160045260246000fd5b61205f80620001716000396000f3fe608060405234801561001057600080fd5b50600436106100cf5760003560e01c806362564c481161008c5780638e7ea5b2116100665780638e7ea5b2146101c757806395bc9538146101e5578063d4f50f9814610201578063f2fde38b14610231576100cf565b806362564c4814610181578063715018a61461019f5780638da5cb5b146101a9576100cf565b80630121b93f146100d4578063013cf08b146100f0578063200d2ed214610121578063209bf2b71461013f57806338db6dd31461015b578063410673e514610177575b600080fd5b6100ee60048036038101906100e991906112ca565b61024d565b005b61010a600480360381019061010591906112ca565b61054e565b60405161011892919061139f565b60405180910390f35b61012961060a565b6040516101369190611446565b60405180910390f35b61015960048036038101906101549190611596565b61061d565b005b6101756004803603810190610170919061163d565b6107de565b005b61017f6109fa565b005b610189610bbd565b60405161019691906117c2565b60405180910390f35b6101a7610cb8565b005b6101b1610d40565b6040516101be91906117f3565b60405180910390f35b6101cf610d69565b6040516101dc919061180e565b60405180910390f35b6101ff60048036038101906101fa919061184e565b610de8565b005b61021b6004803603810190610216919061163d565b610edf565b60405161022891906118d8565b60405180910390f35b61024b6004803603810190610246919061163d565b610ff4565b005b60011515600160003373ffffffffffffffffffffffffffffffffffffffff1673ffffffffffffffffffffffffffffffffffffffff16815260200190815260200160002060000160009054906101000a900460ff161515146102e3576040517f08c379a00000000000000000000000000000000000000000000000000000000081526004016102da9061193f565b60405180910390fd5b600360058111156102f7576102f66113cf565b5b600360009054906101000a900460ff166005811115610319576103186113cf565b5b14610359576040517f08c379a0000000000000000000000000000000000000000000000000000000008152600401610350906119d1565b60405180910390fd5b60028054905081106103a0576040517f08c379a000000000000000000000000000000000000000000000000000000000815260040161039790611a3d565b60405180910390fd5b60001515600160003373ffffffffffffffffffffffffffffffffffffffff1673ffffffffffffffffffffffffffffffffffffffff16815260200190815260200160002060000160019054906101000a900460ff16151514610436576040517f08c379a000000000000000000000000000000000000000000000000000000000815260040161042d90611aa9565b60405180910390fd5b80600160003373ffffffffffffffffffffffffffffffffffffffff1673ffffffffffffffffffffffffffffffffffffffff1681526020019081526020016000206001018190555060018060003373ffffffffffffffffffffffffffffffffffffffff1673ffffffffffffffffffffffffffffffffffffffff16815260200190815260200160002060000160016101000a81548160ff021916908315150217905550600281815481106104eb576104ea611ac9565b5b9060005260206000209060020201600101600081548092919061050d90611b27565b91905055507f4d99b957a2bc29a30ebd96a7be8e68fe50a3c701db28a91436490b7d53870ca43382604051610543929190611b70565b60405180910390a150565b6002818154811061055e57600080fd5b906000526020600020906002020160009150905080600001805461058190611bc8565b80601f01602080910402602001604051908101604052809291908181526020018280546105ad90611bc8565b80156105fa5780601f106105cf576101008083540402835291602001916105fa565b820191906000526020600020905b8154815290600101906020018083116105dd57829003601f168201915b5050505050908060010154905082565b600360009054906101000a900460ff1681565b60011515600160003373ffffffffffffffffffffffffffffffffffffffff1673ffffffffffffffffffffffffffffffffffffffff16815260200190815260200160002060000160009054906101000a900460ff161515146106b3576040517f08c379a00000000000000000000000000000000000000000000000000000000081526004016106aa9061193f565b60405180910390fd5b600160058111156106c7576106c66113cf565b5b600360009054906101000a900460ff1660058111156106e9576106e86113cf565b5b14610729576040517f08c379a000000000000000000000000000000000000000000000000000000000815260040161072090611c6c565b60405180910390fd5b600260405180604001604052808381526020016000815250908060018154018082558091505060019003906000526020600020906002020160009091909190915060008201518160000190805190602001906107869291906111b8565b506020820151816001015550507f92e393e9b54e2f801d3ea4beb0c5e71a21cc34a5d34b77d0fb8a3aa1650dc18f60016002805490506107c69190611c8c565b6040516107d3919061180e565b60405180910390a150565b6107e66110ec565b73ffffffffffffffffffffffffffffffffffffffff16610804610d40565b73ffffffffffffffffffffffffffffffffffffffff161461085a576040517f08c379a000000000000000000000000000000000000000000000000000000000815260040161085190611d0c565b60405180910390fd5b6000600581111561086e5761086d6113cf565b5b600360009054906101000a900460ff1660058111156108905761088f6113cf565b5b146108d0576040517f08c379a00000000000000000000000000000000000000000000000000000000081526004016108c790611d9e565b60405180910390fd5b60001515600160008373ffffffffffffffffffffffffffffffffffffffff1673ffffffffffffffffffffffffffffffffffffffff16815260200190815260200160002060000160009054906101000a900460ff16151514610966576040517f08c379a000000000000000000000000000000000000000000000000000000000815260040161095d90611e0a565b60405180910390fd5b60018060008373ffffffffffffffffffffffffffffffffffffffff1673ffffffffffffffffffffffffffffffffffffffff16815260200190815260200160002060000160006101000a81548160ff0219169083151502179055507fb6be2187d059cc2a55fe29e0e503b566e1e0f8c8780096e185429350acffd3dd816040516109ef91906117f3565b60405180910390a150565b610a026110ec565b73ffffffffffffffffffffffffffffffffffffffff16610a20610d40565b73ffffffffffffffffffffffffffffffffffffffff1614610a76576040517f08c379a0000000000000000000000000000000000000000000000000000000008152600401610a6d90611d0c565b60405180910390fd5b60046005811115610a8a57610a896113cf565b5b600360009054906101000a900460ff166005811115610aac57610aab6113cf565b5b14610aec576040517f08c379a0000000000000000000000000000000000000000000000000000000008152600401610ae390611e76565b60405180910390fd5b60006002805490501415610b35576040517f08c379a0000000000000000000000000000000000000000000000000000000008152600401610b2c90611ee2565b60405180910390fd5b60005b600280549050811015610b8f5760028181548110610b5957610b58611ac9565b5b9060005260206000209060020201600101546004541015610b7c57806004819055505b8080610b8790611b27565b915050610b38565b506005600360006101000a81548160ff02191690836005811115610bb657610bb56113cf565b5b0217905550565b60606002805480602002602001604051908101604052809291908181526020016000905b82821015610caf5783829060005260206000209060020201604051806040016040529081600082018054610c1490611bc8565b80601f0160208091040260200160405190810160405280929190818152602001828054610c4090611bc8565b8015610c8d5780601f10610c6257610100808354040283529160200191610c8d565b820191906000526020600020905b815481529060010190602001808311610c7057829003601f168201915b5050505050815260200160018201548152505081526020019060010190610be1565b50505050905090565b610cc06110ec565b73ffffffffffffffffffffffffffffffffffffffff16610cde610d40565b73ffffffffffffffffffffffffffffffffffffffff1614610d34576040517f08c379a0000000000000000000000000000000000000000000000000000000008152600401610d2b90611d0c565b60405180910390fd5b610d3e60006110f4565b565b60008060009054906101000a900473ffffffffffffffffffffffffffffffffffffffff16905090565b6000600580811115610d7e57610d7d6113cf565b5b600360009054906101000a900460ff166005811115610da057610d9f6113cf565b5b14610de0576040517f08c379a0000000000000000000000000000000000000000000000000000000008152600401610dd790611f4e565b60405180910390fd5b600454905090565b610df06110ec565b73ffffffffffffffffffffffffffffffffffffffff16610e0e610d40565b73ffffffffffffffffffffffffffffffffffffffff1614610e64576040517f08c379a0000000000000000000000000000000000000000000000000000000008152600401610e5b90611d0c565b60405180910390fd5b6000600360009054906101000a900460ff16905081600360006101000a81548160ff02191690836005811115610e9d57610e9c6113cf565b5b02179055507f0a97a4ee45751e2abf3e4fc8946939630b11b371ea8ae39ccdc3056e98f5cc3f8183604051610ed3929190611f6e565b60405180910390a15050565b610ee761123e565b610eef6110ec565b73ffffffffffffffffffffffffffffffffffffffff16610f0d610d40565b73ffffffffffffffffffffffffffffffffffffffff1614610f63576040517f08c379a0000000000000000000000000000000000000000000000000000000008152600401610f5a90611d0c565b60405180910390fd5b600160008373ffffffffffffffffffffffffffffffffffffffff1673ffffffffffffffffffffffffffffffffffffffff1681526020019081526020016000206040518060600160405290816000820160009054906101000a900460ff161515151581526020016000820160019054906101000a900460ff161515151581526020016001820154815250509050919050565b610ffc6110ec565b73ffffffffffffffffffffffffffffffffffffffff1661101a610d40565b73ffffffffffffffffffffffffffffffffffffffff1614611070576040517f08c379a000000000000000000000000000000000000000000000000000000000815260040161106790611d0c565b60405180910390fd5b600073ffffffffffffffffffffffffffffffffffffffff168173ffffffffffffffffffffffffffffffffffffffff1614156110e0576040517f08c379a00000000000000000000000000000000000000000000000000000000081526004016110d790612009565b60405180910390fd5b6110e9816110f4565b50565b600033905090565b60008060009054906101000a900473ffffffffffffffffffffffffffffffffffffffff169050816000806101000a81548173ffffffffffffffffffffffffffffffffffffffff021916908373ffffffffffffffffffffffffffffffffffffffff1602179055508173ffffffffffffffffffffffffffffffffffffffff168173ffffffffffffffffffffffffffffffffffffffff167f8be0079c531659141344cd1fd0a4f28419497f9722a3daafe3b4186f6b6457e060405160405180910390a35050565b8280546111c490611bc8565b90600052602060002090601f0160209004810192826111e6576000855561122d565b82601f106111ff57805160ff191683800117855561122d565b8280016001018555821561122d579182015b8281111561122c578251825591602001919060010190611211565b5b50905061123a9190611263565b5090565b6040518060600160405280600015158152602001600015158152602001600081525090565b5b8082111561127c576000816000905550600101611264565b5090565b6000604051905090565b600080fd5b600080fd5b6000819050919050565b6112a781611294565b81146112b257600080fd5b50565b6000813590506112c48161129e565b92915050565b6000602082840312156112e0576112df61128a565b5b60006112ee848285016112b5565b91505092915050565b600081519050919050565b600082825260208201905092915050565b60005b83811015611331578082015181840152602081019050611316565b83811115611340576000848401525b50505050565b6000601f19601f8301169050919050565b6000611362826112f7565b61136c8185611302565b935061137c818560208601611313565b61138581611346565b840191505092915050565b61139981611294565b82525050565b600060408201905081810360008301526113b98185611357565b90506113c86020830184611390565b9392505050565b7f4e487b7100000000000000000000000000000000000000000000000000000000600052602160045260246000fd5b6006811061140f5761140e6113cf565b5b50565b6000819050611420826113fe565b919050565b600061143082611412565b9050919050565b61144081611425565b82525050565b600060208201905061145b6000830184611437565b92915050565b600080fd5b600080fd5b7f4e487b7100000000000000000000000000000000000000000000000000000000600052604160045260246000fd5b6114a382611346565b810181811067ffffffffffffffff821117156114c2576114c161146b565b5b80604052505050565b60006114d5611280565b90506114e1828261149a565b919050565b600067ffffffffffffffff8211156115015761150061146b565b5b61150a82611346565b9050602081019050919050565b82818337600083830152505050565b6000611539611534846114e6565b6114cb565b90508281526020810184848401111561155557611554611466565b5b611560848285611517565b509392505050565b600082601f83011261157d5761157c611461565b5b813561158d848260208601611526565b91505092915050565b6000602082840312156115ac576115ab61128a565b5b600082013567ffffffffffffffff8111156115ca576115c961128f565b5b6115d684828501611568565b91505092915050565b600073ffffffffffffffffffffffffffffffffffffffff82169050919050565b600061160a826115df565b9050919050565b61161a816115ff565b811461162557600080fd5b50565b60008135905061163781611611565b92915050565b6000602082840312156116535761165261128a565b5b600061166184828501611628565b91505092915050565b600081519050919050565b600082825260208201905092915050565b6000819050602082019050919050565b600082825260208201905092915050565b60006116b2826112f7565b6116bc8185611696565b93506116cc818560208601611313565b6116d581611346565b840191505092915050565b6116e981611294565b82525050565b6000604083016000830151848203600086015261170c82826116a7565b915050602083015161172160208601826116e0565b508091505092915050565b600061173883836116ef565b905092915050565b6000602082019050919050565b60006117588261166a565b6117628185611675565b93508360208202850161177485611686565b8060005b858110156117b05784840389528151611791858261172c565b945061179c83611740565b925060208a01995050600181019050611778565b50829750879550505050505092915050565b600060208201905081810360008301526117dc818461174d565b905092915050565b6117ed816115ff565b82525050565b600060208201905061180860008301846117e4565b92915050565b60006020820190506118236000830184611390565b92915050565b6006811061183657600080fd5b50565b60008135905061184881611829565b92915050565b6000602082840312156118645761186361128a565b5b600061187284828501611839565b91505092915050565b60008115159050919050565b6118908161187b565b82525050565b6060820160008201516118ac6000850182611887565b5060208201516118bf6020850182611887565b5060408201516118d260408501826116e0565b50505050565b60006060820190506118ed6000830184611896565b92915050565b7f566f746572206e6f742072656769737465726564000000000000000000000000600082015250565b6000611929601483611302565b9150611934826118f3565b602082019050919050565b600060208201905081810360008301526119588161191c565b9050919050565b7f566f74696e672073657373696f6e206861736e2774207374617274656420796560008201527f7400000000000000000000000000000000000000000000000000000000000000602082015250565b60006119bb602183611302565b91506119c68261195f565b604082019050919050565b600060208201905081810360008301526119ea816119ae565b9050919050565b7f50726f706f73616c206e6f7420666f756e640000000000000000000000000000600082015250565b6000611a27601283611302565b9150611a32826119f1565b602082019050919050565b60006020820190508181036000830152611a5681611a1a565b9050919050565b7f566f7465722068617320616c726561647920766f746564000000000000000000600082015250565b6000611a93601783611302565b9150611a9e82611a5d565b602082019050919050565b60006020820190508181036000830152611ac281611a86565b9050919050565b7f4e487b7100000000000000000000000000000000000000000000000000000000600052603260045260246000fd5b7f4e487b7100000000000000000000000000000000000000000000000000000000600052601160045260246000fd5b6000611b3282611294565b91507fffffffffffffffffffffffffffffffffffffffffffffffffffffffffffffffff821415611b6557611b64611af8565b5b600182019050919050565b6000604082019050611b8560008301856117e4565b611b926020830184611390565b9392505050565b7f4e487b7100000000000000000000000000000000000000000000000000000000600052602260045260246000fd5b60006002820490506001821680611be057607f821691505b60208210811415611bf457611bf3611b99565b5b50919050565b7f50726f706f73616c7320726567697374726174696f6e206861736e277420737460008201527f6172746564207965740000000000000000000000000000000000000000000000602082015250565b6000611c56602983611302565b9150611c6182611bfa565b604082019050919050565b60006020820190508181036000830152611c8581611c49565b9050919050565b6000611c9782611294565b9150611ca283611294565b925082821015611cb557611cb4611af8565b5b828203905092915050565b7f4f776e61626c653a2063616c6c6572206973206e6f7420746865206f776e6572600082015250565b6000611cf6602083611302565b9150611d0182611cc0565b602082019050919050565b60006020820190508181036000830152611d2581611ce9565b9050919050565b7f566f7465727320726567697374726174696f6e73206861736e2774207374617260008201527f7465642079657400000000000000000000000000000000000000000000000000602082015250565b6000611d88602783611302565b9150611d9382611d2c565b604082019050919050565b60006020820190508181036000830152611db781611d7b565b9050919050565b7f566f74657220616c726561647920726567697374657265640000000000000000600082015250565b6000611df4601883611302565b9150611dff82611dbe565b602082019050919050565b60006020820190508181036000830152611e2381611de7565b9050919050565b7f566f74696e672073657373696f6e206861736e277420656e6465642079657400600082015250565b6000611e60601f83611302565b9150611e6b82611e2a565b602082019050919050565b60006020820190508181036000830152611e8f81611e53565b9050919050565b7f5468657265206973206e6f742070726f706f73616c0000000000000000000000600082015250565b6000611ecc601583611302565b9150611ed782611e96565b602082019050919050565b60006020820190508181036000830152611efb81611ebf565b9050919050565b7f54616c6c696e672073657373696f6e2069736e27742066696e69736800000000600082015250565b6000611f38601c83611302565b9150611f4382611f02565b602082019050919050565b60006020820190508181036000830152611f6781611f2b565b9050919050565b6000604082019050611f836000830185611437565b611f906020830184611437565b9392505050565b7f4f776e61626c653a206e6577206f776e657220697320746865207a65726f206160008201527f6464726573730000000000000000000000000000000000000000000000000000602082015250565b6000611ff3602683611302565b9150611ffe82611f97565b604082019050919050565b6000602082019050818103600083015261202281611fe6565b905091905056fea264697066735822122059105b08d70fa6ca76bd44e0c1212ce9ce568ed16ba303bdc76760b88be5b63c64736f6c634300080a0033",
  "immutableReferences": {},
  "source": "// SPDX-License-Identifier: MIT\npragma solidity >=0.8.9;\n\nimport \"@openzeppelin/contracts/access/Ownable.sol\";\n\ncontract Voting is Ownable {\n    struct Voter {\n        bool isRegistered;\n        bool hasVoted;\n        uint votedProposalId;\n    }\n\n    struct Proposal {\n        string description;\n        uint voteCount;\n    }\n\n    enum WorkflowStatus {\n        RegisteringVoters,\n        ProposalsRegistrationStarted,\n        ProposalsRegistrationEnded,\n        VotingSessionStarted,\n        VotingSessionEnded,\n        VotesTallied\n    }\n\n    mapping (address => Voter) private _voters;\n    Proposal[] public proposals;\n    WorkflowStatus public status = WorkflowStatus.RegisteringVoters;\n    uint winningProposalId;\n\n    event VoterRegistered(address voterAddress); \n    event WorkflowStatusChange(WorkflowStatus previousStatus, WorkflowStatus newStatus);\n    event ProposalRegistered(uint proposalId);\n    event Voted (address voter, uint proposalId);\n\n    modifier isRegistered() {\n        require(_voters[msg.sender].isRegistered == true, \"Voter not registered\");\n        _;\n    }\n\n    function changeStatus(WorkflowStatus _newStatus) public onlyOwner {\n        WorkflowStatus _previousStatus = status;\n        status = _newStatus;\n        emit WorkflowStatusChange(_previousStatus, _newStatus);\n    }\n\n    function registerVoter(address _address) public onlyOwner {\n        require(status == WorkflowStatus.RegisteringVoters, \"Voters registrations hasn't started yet\");\n        require(_voters[_address].isRegistered == false, \"Voter already registered\");\n        _voters[_address].isRegistered = true;\n        emit VoterRegistered(_address);\n    }\n\n    function proposalRegistration(string memory _description) public isRegistered {\n        require(status == WorkflowStatus.ProposalsRegistrationStarted, \"Proposals registration hasn't started yet\");\n        proposals.push(Proposal(_description, 0));\n        emit ProposalRegistered(proposals.length -1);\n    }\n\n    function vote(uint _proposalId) public isRegistered {\n        require(status == WorkflowStatus.VotingSessionStarted, \"Voting session hasn't started yet\");\n        require(_proposalId < proposals.length, \"Proposal not found\");\n        require(_voters[msg.sender].hasVoted == false, \"Voter has already voted\");\n        _voters[msg.sender].votedProposalId = _proposalId;\n        _voters[msg.sender].hasVoted = true;\n        proposals[_proposalId].voteCount ++;\n        emit Voted(msg.sender, _proposalId);        \n    }\n\n    function tally() public onlyOwner {\n        require(status == WorkflowStatus.VotingSessionEnded, \"Voting session hasn't ended yet\");\n        require(proposals.length != 0, \"There is not proposal\");\n        for (uint i = 0; i < proposals.length; i++) {\n            if (winningProposalId < proposals[i].voteCount) {\n                winningProposalId = i;\n            }\n        }\n        status = WorkflowStatus.VotesTallied;\n    }\n\n    function getWinner() public view returns(uint) {\n        require(status == WorkflowStatus.VotesTallied, \"Talling session isn't finish\");\n        return winningProposalId;\n    }\n\n    function getProposals() public view returns(Proposal[] memory) {\n        return proposals;\n    }\n\n    function getVoter(address _address) public view onlyOwner returns(Voter memory) {\n        return _voters[_address];\n    }\n}",
  "sourcePath": "/home/vincent/Alyra/Truffle/Defi2/contracts/Voting.sol",
  "compiler": {
    "name": "solc",
    "version": "0.8.10+commit.fc410830.Emscripten.clang"
  },
  "schemaVersion": "3.4.4",
  "updatedAt": "2022-01-04T16:01:42.559Z",
  "networkType": "ethereum",
  "devdoc": {
    "kind": "dev",
    "methods": {
      "owner()": {
        "details": "Returns the address of the current owner."
      },
      "renounceOwnership()": {
        "details": "Leaves the contract without owner. It will not be possible to call `onlyOwner` functions anymore. Can only be called by the current owner. NOTE: Renouncing ownership will leave the contract without an owner, thereby removing any functionality that is only available to the owner."
      },
      "transferOwnership(address)": {
        "details": "Transfers ownership of the contract to a new account (`newOwner`). Can only be called by the current owner."
      }
    },
    "version": 1
  },
  "userdoc": {
    "kind": "user",
    "methods": {},
    "version": 1
  }
}