{
  "contractName": "Voting",
  "abi": [
    {
      "anonymous": false,
      "inputs": [
        {
          "indexed": true,
          "internalType": "address",
          "name": "previousOwner",
          "type": "address"
        },
        {
          "indexed": true,
          "internalType": "address",
          "name": "newOwner",
          "type": "address"
        }
      ],
      "name": "OwnershipTransferred",
      "type": "event"
    },
    {
      "anonymous": false,
      "inputs": [
        {
          "indexed": false,
          "internalType": "uint256",
          "name": "proposalId",
          "type": "uint256"
        }
      ],
      "name": "ProposalRegistered",
      "type": "event"
    },
    {
      "anonymous": false,
      "inputs": [
        {
          "indexed": false,
          "internalType": "address",
          "name": "voter",
          "type": "address"
        },
        {
          "indexed": false,
          "internalType": "uint256",
          "name": "proposalId",
          "type": "uint256"
        }
      ],
      "name": "Voted",
      "type": "event"
    },
    {
      "anonymous": false,
      "inputs": [
        {
          "indexed": false,
          "internalType": "address",
          "name": "voterAddress",
          "type": "address"
        }
      ],
      "name": "VoterRegistered",
      "type": "event"
    },
    {
      "anonymous": false,
      "inputs": [
        {
          "indexed": false,
          "internalType": "enum Voting.WorkflowStatus",
          "name": "previousStatus",
          "type": "uint8"
        },
        {
          "indexed": false,
          "internalType": "enum Voting.WorkflowStatus",
          "name": "newStatus",
          "type": "uint8"
        }
      ],
      "name": "WorkflowStatusChange",
      "type": "event"
    },
    {
      "inputs": [
        {
          "internalType": "address",
          "name": "",
          "type": "address"
        }
      ],
      "name": "_voters",
      "outputs": [
        {
          "internalType": "bool",
          "name": "isRegistered",
          "type": "bool"
        },
        {
          "internalType": "bool",
          "name": "hasVoted",
          "type": "bool"
        },
        {
          "internalType": "uint256",
          "name": "votedProposalId",
          "type": "uint256"
        }
      ],
      "stateMutability": "view",
      "type": "function",
      "constant": true
    },
    {
      "inputs": [],
      "name": "owner",
      "outputs": [
        {
          "internalType": "address",
          "name": "",
          "type": "address"
        }
      ],
      "stateMutability": "view",
      "type": "function",
      "constant": true
    },
    {
      "inputs": [
        {
          "internalType": "uint256",
          "name": "",
          "type": "uint256"
        }
      ],
      "name": "proposals",
      "outputs": [
        {
          "internalType": "string",
          "name": "description",
          "type": "string"
        },
        {
          "internalType": "uint256",
          "name": "voteCount",
          "type": "uint256"
        }
      ],
      "stateMutability": "view",
      "type": "function",
      "constant": true
    },
    {
      "inputs": [],
      "name": "renounceOwnership",
      "outputs": [],
      "stateMutability": "nonpayable",
      "type": "function"
    },
    {
      "inputs": [],
      "name": "status",
      "outputs": [
        {
          "internalType": "enum Voting.WorkflowStatus",
          "name": "",
          "type": "uint8"
        }
      ],
      "stateMutability": "view",
      "type": "function",
      "constant": true
    },
    {
      "inputs": [
        {
          "internalType": "address",
          "name": "newOwner",
          "type": "address"
        }
      ],
      "name": "transferOwnership",
      "outputs": [],
      "stateMutability": "nonpayable",
      "type": "function"
    },
    {
      "inputs": [
        {
          "internalType": "uint256",
          "name": "",
          "type": "uint256"
        }
      ],
      "name": "voters",
      "outputs": [
        {
          "internalType": "address",
          "name": "",
          "type": "address"
        }
      ],
      "stateMutability": "view",
      "type": "function",
      "constant": true
    },
    {
      "inputs": [
        {
          "internalType": "enum Voting.WorkflowStatus",
          "name": "_newStatus",
          "type": "uint8"
        }
      ],
      "name": "changeStatus",
      "outputs": [],
      "stateMutability": "nonpayable",
      "type": "function"
    },
    {
      "inputs": [
        {
          "internalType": "address",
          "name": "_address",
          "type": "address"
        }
      ],
      "name": "registerVoter",
      "outputs": [],
      "stateMutability": "nonpayable",
      "type": "function"
    },
    {
      "inputs": [
        {
          "internalType": "string",
          "name": "_description",
          "type": "string"
        }
      ],
      "name": "proposalRegistration",
      "outputs": [],
      "stateMutability": "nonpayable",
      "type": "function"
    },
    {
      "inputs": [
        {
          "internalType": "uint256",
          "name": "_proposalId",
          "type": "uint256"
        }
      ],
      "name": "vote",
      "outputs": [],
      "stateMutability": "nonpayable",
      "type": "function"
    },
    {
      "inputs": [],
      "name": "tally",
      "outputs": [],
      "stateMutability": "nonpayable",
      "type": "function"
    },
    {
      "inputs": [],
      "name": "getWinner",
      "outputs": [
        {
          "internalType": "uint256",
          "name": "",
          "type": "uint256"
        }
      ],
      "stateMutability": "view",
      "type": "function",
      "constant": true
    },
    {
      "inputs": [],
      "name": "getProposals",
      "outputs": [
        {
          "components": [
            {
              "internalType": "string",
              "name": "description",
              "type": "string"
            },
            {
              "internalType": "uint256",
              "name": "voteCount",
              "type": "uint256"
            }
          ],
          "internalType": "struct Voting.Proposal[]",
          "name": "",
          "type": "tuple[]"
        }
      ],
      "stateMutability": "view",
      "type": "function",
      "constant": true
    },
    {
      "inputs": [],
      "name": "getVoter",
      "outputs": [
        {
          "internalType": "address[]",
          "name": "",
          "type": "address[]"
        }
      ],
      "stateMutability": "view",
      "type": "function",
      "constant": true
    }
  ],
  "bytecode": "0x60806040526000600460006101000a81548160ff021916908360058111156200002d576200002c62000144565b5b02179055503480156200003f57600080fd5b50620000726200005d62000078640100000000026401000000009004565b62000080640100000000026401000000009004565b62000173565b600033905090565b60008060009054906101000a900473ffffffffffffffffffffffffffffffffffffffff169050816000806101000a81548173ffffffffffffffffffffffffffffffffffffffff021916908373ffffffffffffffffffffffffffffffffffffffff1602179055508173ffffffffffffffffffffffffffffffffffffffff168173ffffffffffffffffffffffffffffffffffffffff167f8be0079c531659141344cd1fd0a4f28419497f9722a3daafe3b4186f6b6457e060405160405180910390a35050565b7f4e487b7100000000000000000000000000000000000000000000000000000000600052602160045260246000fd5b6122ce80620001836000396000f3fe608060405234801561001057600080fd5b5060043610610112576000357c01000000000000000000000000000000000000000000000000000000009004806362564c48116100b45780639029e1cf116100835780639029e1cf1461024657806395bc953814610278578063da58c7d914610294578063f2fde38b146102c457610112565b806362564c48146101e2578063715018a6146102005780638da5cb5b1461020a5780638e7ea5b21461022857610112565b8063209bf2b7116100f0578063209bf2b7146101825780632b37f53c1461019e57806338db6dd3146101bc578063410673e5146101d857610112565b80630121b93f14610117578063013cf08b14610133578063200d2ed214610164575b600080fd5b610131600480360381019061012c9190611413565b6102e0565b005b61014d60048036038101906101489190611413565b6105d4565b60405161015b9291906114e8565b60405180910390f35b61016c610690565b604051610179919061158f565b60405180910390f35b61019c600480360381019061019791906116df565b6106a3565b005b6101a661085d565b6040516101b39190611818565b60405180910390f35b6101d660048036038101906101d19190611866565b6108eb565b005b6101e0610b64565b005b6101ea610d27565b6040516101f791906119eb565b60405180910390f35b610208610e22565b005b610212610eaa565b60405161021f9190611a1c565b60405180910390f35b610230610ed3565b60405161023d9190611a37565b60405180910390f35b610260600480360381019061025b9190611866565b610f52565b60405161026f93929190611a6d565b60405180910390f35b610292600480360381019061028d9190611ac9565b610f96565b005b6102ae60048036038101906102a99190611413565b611123565b6040516102bb9190611a1c565b60405180910390f35b6102de60048036038101906102d99190611866565b611162565b005b600160003373ffffffffffffffffffffffffffffffffffffffff1673ffffffffffffffffffffffffffffffffffffffff16815260200190815260200160002060000160009054906101000a900460ff1661036f576040517f08c379a000000000000000000000000000000000000000000000000000000000815260040161036690611b42565b60405180910390fd5b6003600581111561038357610382611518565b5b600460009054906101000a900460ff1660058111156103a5576103a4611518565b5b146103e5576040517f08c379a00000000000000000000000000000000000000000000000000000000081526004016103dc90611bd4565b60405180910390fd5b600380549050811061042c576040517f08c379a000000000000000000000000000000000000000000000000000000000815260040161042390611c40565b60405180910390fd5b600160003373ffffffffffffffffffffffffffffffffffffffff1673ffffffffffffffffffffffffffffffffffffffff16815260200190815260200160002060000160019054906101000a900460ff16156104bc576040517f08c379a00000000000000000000000000000000000000000000000000000000081526004016104b390611cac565b60405180910390fd5b80600160003373ffffffffffffffffffffffffffffffffffffffff1673ffffffffffffffffffffffffffffffffffffffff1681526020019081526020016000206001018190555060018060003373ffffffffffffffffffffffffffffffffffffffff1673ffffffffffffffffffffffffffffffffffffffff16815260200190815260200160002060000160016101000a81548160ff0219169083151502179055506003818154811061057157610570611ccc565b5b9060005260206000209060020201600101600081548092919061059390611d2a565b91905055507f4d99b957a2bc29a30ebd96a7be8e68fe50a3c701db28a91436490b7d53870ca433826040516105c9929190611d73565b60405180910390a150565b600381815481106105e457600080fd5b906000526020600020906002020160009150905080600001805461060790611dcb565b80601f016020809104026020016040519081016040528092919081815260200182805461063390611dcb565b80156106805780601f1061065557610100808354040283529160200191610680565b820191906000526020600020905b81548152906001019060200180831161066357829003601f168201915b5050505050908060010154905082565b600460009054906101000a900460ff1681565b600160003373ffffffffffffffffffffffffffffffffffffffff1673ffffffffffffffffffffffffffffffffffffffff16815260200190815260200160002060000160009054906101000a900460ff16610732576040517f08c379a000000000000000000000000000000000000000000000000000000000815260040161072990611b42565b60405180910390fd5b6001600581111561074657610745611518565b5b600460009054906101000a900460ff16600581111561076857610767611518565b5b146107a8576040517f08c379a000000000000000000000000000000000000000000000000000000000815260040161079f90611e6f565b60405180910390fd5b60036040518060400160405280838152602001600081525090806001815401808255809150506001900390600052602060002090600202016000909190919091506000820151816000019080519060200190610805929190611326565b506020820151816001015550507f92e393e9b54e2f801d3ea4beb0c5e71a21cc34a5d34b77d0fb8a3aa1650dc18f60016003805490506108459190611e8f565b6040516108529190611a37565b60405180910390a150565b606060028054806020026020016040519081016040528092919081815260200182805480156108e157602002820191906000526020600020905b8160009054906101000a900473ffffffffffffffffffffffffffffffffffffffff1673ffffffffffffffffffffffffffffffffffffffff1681526020019060010190808311610897575b5050505050905090565b6108f361125a565b73ffffffffffffffffffffffffffffffffffffffff16610911610eaa565b73ffffffffffffffffffffffffffffffffffffffff1614610967576040517f08c379a000000000000000000000000000000000000000000000000000000000815260040161095e90611f0f565b60405180910390fd5b6000600581111561097b5761097a611518565b5b600460009054906101000a900460ff16600581111561099d5761099c611518565b5b146109dd576040517f08c379a00000000000000000000000000000000000000000000000000000000081526004016109d490611fa1565b60405180910390fd5b600160008273ffffffffffffffffffffffffffffffffffffffff1673ffffffffffffffffffffffffffffffffffffffff16815260200190815260200160002060000160009054906101000a900460ff1615610a6d576040517f08c379a0000000000000000000000000000000000000000000000000000000008152600401610a649061200d565b60405180910390fd5b60018060008373ffffffffffffffffffffffffffffffffffffffff1673ffffffffffffffffffffffffffffffffffffffff16815260200190815260200160002060000160006101000a81548160ff0219169083151502179055506002819080600181540180825580915050600190039060005260206000200160009091909190916101000a81548173ffffffffffffffffffffffffffffffffffffffff021916908373ffffffffffffffffffffffffffffffffffffffff1602179055507fb6be2187d059cc2a55fe29e0e503b566e1e0f8c8780096e185429350acffd3dd81604051610b599190611a1c565b60405180910390a150565b610b6c61125a565b73ffffffffffffffffffffffffffffffffffffffff16610b8a610eaa565b73ffffffffffffffffffffffffffffffffffffffff1614610be0576040517f08c379a0000000000000000000000000000000000000000000000000000000008152600401610bd790611f0f565b60405180910390fd5b60046005811115610bf457610bf3611518565b5b600460009054906101000a900460ff166005811115610c1657610c15611518565b5b14610c56576040517f08c379a0000000000000000000000000000000000000000000000000000000008152600401610c4d90612079565b60405180910390fd5b60006003805490501415610c9f576040517f08c379a0000000000000000000000000000000000000000000000000000000008152600401610c96906120e5565b60405180910390fd5b60005b600380549050811015610cf95760038181548110610cc357610cc2611ccc565b5b9060005260206000209060020201600101546005541015610ce657806005819055505b8080610cf190611d2a565b915050610ca2565b506005600460006101000a81548160ff02191690836005811115610d2057610d1f611518565b5b0217905550565b60606003805480602002602001604051908101604052809291908181526020016000905b82821015610e195783829060005260206000209060020201604051806040016040529081600082018054610d7e90611dcb565b80601f0160208091040260200160405190810160405280929190818152602001828054610daa90611dcb565b8015610df75780601f10610dcc57610100808354040283529160200191610df7565b820191906000526020600020905b815481529060010190602001808311610dda57829003601f168201915b5050505050815260200160018201548152505081526020019060010190610d4b565b50505050905090565b610e2a61125a565b73ffffffffffffffffffffffffffffffffffffffff16610e48610eaa565b73ffffffffffffffffffffffffffffffffffffffff1614610e9e576040517f08c379a0000000000000000000000000000000000000000000000000000000008152600401610e9590611f0f565b60405180910390fd5b610ea86000611262565b565b60008060009054906101000a900473ffffffffffffffffffffffffffffffffffffffff16905090565b6000600580811115610ee857610ee7611518565b5b600460009054906101000a900460ff166005811115610f0a57610f09611518565b5b14610f4a576040517f08c379a0000000000000000000000000000000000000000000000000000000008152600401610f4190612151565b60405180910390fd5b600554905090565b60016020528060005260406000206000915090508060000160009054906101000a900460ff16908060000160019054906101000a900460ff16908060010154905083565b610f9e61125a565b73ffffffffffffffffffffffffffffffffffffffff16610fbc610eaa565b73ffffffffffffffffffffffffffffffffffffffff1614611012576040517f08c379a000000000000000000000000000000000000000000000000000000000815260040161100990611f0f565b60405180910390fd5b6000600581111561102657611025611518565b5b81600581111561103957611038611518565b5b101580611069575060058081111561105457611053611518565b5b81600581111561106757611066611518565b5b115b6110a8576040517f08c379a000000000000000000000000000000000000000000000000000000000815260040161109f906121bd565b60405180910390fd5b6000600460009054906101000a900460ff16905081600460006101000a81548160ff021916908360058111156110e1576110e0611518565b5b02179055507f0a97a4ee45751e2abf3e4fc8946939630b11b371ea8ae39ccdc3056e98f5cc3f81836040516111179291906121dd565b60405180910390a15050565b6002818154811061113357600080fd5b906000526020600020016000915054906101000a900473ffffffffffffffffffffffffffffffffffffffff1681565b61116a61125a565b73ffffffffffffffffffffffffffffffffffffffff16611188610eaa565b73ffffffffffffffffffffffffffffffffffffffff16146111de576040517f08c379a00000000000000000000000000000000000000000000000000000000081526004016111d590611f0f565b60405180910390fd5b600073ffffffffffffffffffffffffffffffffffffffff168173ffffffffffffffffffffffffffffffffffffffff16141561124e576040517f08c379a000000000000000000000000000000000000000000000000000000000815260040161124590612278565b60405180910390fd5b61125781611262565b50565b600033905090565b60008060009054906101000a900473ffffffffffffffffffffffffffffffffffffffff169050816000806101000a81548173ffffffffffffffffffffffffffffffffffffffff021916908373ffffffffffffffffffffffffffffffffffffffff1602179055508173ffffffffffffffffffffffffffffffffffffffff168173ffffffffffffffffffffffffffffffffffffffff167f8be0079c531659141344cd1fd0a4f28419497f9722a3daafe3b4186f6b6457e060405160405180910390a35050565b82805461133290611dcb565b90600052602060002090601f016020900481019282611354576000855561139b565b82601f1061136d57805160ff191683800117855561139b565b8280016001018555821561139b579182015b8281111561139a57825182559160200191906001019061137f565b5b5090506113a891906113ac565b5090565b5b808211156113c55760008160009055506001016113ad565b5090565b6000604051905090565b600080fd5b600080fd5b6000819050919050565b6113f0816113dd565b81146113fb57600080fd5b50565b60008135905061140d816113e7565b92915050565b600060208284031215611429576114286113d3565b5b6000611437848285016113fe565b91505092915050565b600081519050919050565b600082825260208201905092915050565b60005b8381101561147a57808201518184015260208101905061145f565b83811115611489576000848401525b50505050565b6000601f19601f8301169050919050565b60006114ab82611440565b6114b5818561144b565b93506114c581856020860161145c565b6114ce8161148f565b840191505092915050565b6114e2816113dd565b82525050565b6000604082019050818103600083015261150281856114a0565b905061151160208301846114d9565b9392505050565b7f4e487b7100000000000000000000000000000000000000000000000000000000600052602160045260246000fd5b6006811061155857611557611518565b5b50565b600081905061156982611547565b919050565b60006115798261155b565b9050919050565b6115898161156e565b82525050565b60006020820190506115a46000830184611580565b92915050565b600080fd5b600080fd5b7f4e487b7100000000000000000000000000000000000000000000000000000000600052604160045260246000fd5b6115ec8261148f565b810181811067ffffffffffffffff8211171561160b5761160a6115b4565b5b80604052505050565b600061161e6113c9565b905061162a82826115e3565b919050565b600067ffffffffffffffff82111561164a576116496115b4565b5b6116538261148f565b9050602081019050919050565b82818337600083830152505050565b600061168261167d8461162f565b611614565b90508281526020810184848401111561169e5761169d6115af565b5b6116a9848285611660565b509392505050565b600082601f8301126116c6576116c56115aa565b5b81356116d684826020860161166f565b91505092915050565b6000602082840312156116f5576116f46113d3565b5b600082013567ffffffffffffffff811115611713576117126113d8565b5b61171f848285016116b1565b91505092915050565b600081519050919050565b600082825260208201905092915050565b6000819050602082019050919050565b600073ffffffffffffffffffffffffffffffffffffffff82169050919050565b600061177f82611754565b9050919050565b61178f81611774565b82525050565b60006117a18383611786565b60208301905092915050565b6000602082019050919050565b60006117c582611728565b6117cf8185611733565b93506117da83611744565b8060005b8381101561180b5781516117f28882611795565b97506117fd836117ad565b9250506001810190506117de565b5085935050505092915050565b6000602082019050818103600083015261183281846117ba565b905092915050565b61184381611774565b811461184e57600080fd5b50565b6000813590506118608161183a565b92915050565b60006020828403121561187c5761187b6113d3565b5b600061188a84828501611851565b91505092915050565b600081519050919050565b600082825260208201905092915050565b6000819050602082019050919050565b600082825260208201905092915050565b60006118db82611440565b6118e581856118bf565b93506118f581856020860161145c565b6118fe8161148f565b840191505092915050565b611912816113dd565b82525050565b6000604083016000830151848203600086015261193582826118d0565b915050602083015161194a6020860182611909565b508091505092915050565b60006119618383611918565b905092915050565b6000602082019050919050565b600061198182611893565b61198b818561189e565b93508360208202850161199d856118af565b8060005b858110156119d957848403895281516119ba8582611955565b94506119c583611969565b925060208a019950506001810190506119a1565b50829750879550505050505092915050565b60006020820190508181036000830152611a058184611976565b905092915050565b611a1681611774565b82525050565b6000602082019050611a316000830184611a0d565b92915050565b6000602082019050611a4c60008301846114d9565b92915050565b60008115159050919050565b611a6781611a52565b82525050565b6000606082019050611a826000830186611a5e565b611a8f6020830185611a5e565b611a9c60408301846114d9565b949350505050565b60068110611ab157600080fd5b50565b600081359050611ac381611aa4565b92915050565b600060208284031215611adf57611ade6113d3565b5b6000611aed84828501611ab4565b91505092915050565b7f566f746572206e6f742072656769737465726564000000000000000000000000600082015250565b6000611b2c60148361144b565b9150611b3782611af6565b602082019050919050565b60006020820190508181036000830152611b5b81611b1f565b9050919050565b7f566f74696e672073657373696f6e20686173206e6f742073746172746564207960008201527f6574000000000000000000000000000000000000000000000000000000000000602082015250565b6000611bbe60228361144b565b9150611bc982611b62565b604082019050919050565b60006020820190508181036000830152611bed81611bb1565b9050919050565b7f50726f706f73616c206e6f7420666f756e640000000000000000000000000000600082015250565b6000611c2a60128361144b565b9150611c3582611bf4565b602082019050919050565b60006020820190508181036000830152611c5981611c1d565b9050919050565b7f566f7465722068617320616c726561647920766f746564000000000000000000600082015250565b6000611c9660178361144b565b9150611ca182611c60565b602082019050919050565b60006020820190508181036000830152611cc581611c89565b9050919050565b7f4e487b7100000000000000000000000000000000000000000000000000000000600052603260045260246000fd5b7f4e487b7100000000000000000000000000000000000000000000000000000000600052601160045260246000fd5b6000611d35826113dd565b91507fffffffffffffffffffffffffffffffffffffffffffffffffffffffffffffffff821415611d6857611d67611cfb565b5b600182019050919050565b6000604082019050611d886000830185611a0d565b611d9560208301846114d9565b9392505050565b7f4e487b7100000000000000000000000000000000000000000000000000000000600052602260045260246000fd5b60006002820490506001821680611de357607f821691505b60208210811415611df757611df6611d9c565b5b50919050565b7f50726f706f73616c7320726567697374726174696f6e20686173206e6f74207360008201527f7461727465642079657400000000000000000000000000000000000000000000602082015250565b6000611e59602a8361144b565b9150611e6482611dfd565b604082019050919050565b60006020820190508181036000830152611e8881611e4c565b9050919050565b6000611e9a826113dd565b9150611ea5836113dd565b925082821015611eb857611eb7611cfb565b5b828203905092915050565b7f4f776e61626c653a2063616c6c6572206973206e6f7420746865206f776e6572600082015250565b6000611ef960208361144b565b9150611f0482611ec3565b602082019050919050565b60006020820190508181036000830152611f2881611eec565b9050919050565b7f566f7465727320726567697374726174696f6e7320686173206e6f742073746160008201527f7274656420796574000000000000000000000000000000000000000000000000602082015250565b6000611f8b60288361144b565b9150611f9682611f2f565b604082019050919050565b60006020820190508181036000830152611fba81611f7e565b9050919050565b7f566f74657220616c726561647920726567697374657265640000000000000000600082015250565b6000611ff760188361144b565b915061200282611fc1565b602082019050919050565b6000602082019050818103600083015261202681611fea565b9050919050565b7f566f74696e672073657373696f6e20686173206e6f7420656e64656420796574600082015250565b600061206360208361144b565b915061206e8261202d565b602082019050919050565b6000602082019050818103600083015261209281612056565b9050919050565b7f5468657265206973206e6f742070726f706f73616c0000000000000000000000600082015250565b60006120cf60158361144b565b91506120da82612099565b602082019050919050565b600060208201905081810360008301526120fe816120c2565b9050919050565b7f54616c6c696e672073657373696f6e206973206e6f742066696e697368000000600082015250565b600061213b601d8361144b565b915061214682612105565b602082019050919050565b6000602082019050818103600083015261216a8161212e565b9050919050565b7f53746174757320646f6573206e6f742065786973740000000000000000000000600082015250565b60006121a760158361144b565b91506121b282612171565b602082019050919050565b600060208201905081810360008301526121d68161219a565b9050919050565b60006040820190506121f26000830185611580565b6121ff6020830184611580565b9392505050565b7f4f776e61626c653a206e6577206f776e657220697320746865207a65726f206160008201527f6464726573730000000000000000000000000000000000000000000000000000602082015250565b600061226260268361144b565b915061226d82612206565b604082019050919050565b6000602082019050818103600083015261229181612255565b905091905056fea264697066735822122067ff30f167dce2f59481e1694c14459b13184c56006c55c122b7c6d5bf2a627164736f6c634300080a0033",
  "immutableReferences": {},
  "source": "// SPDX-License-Identifier: MIT\npragma solidity 0.8.10;\n\nimport \"@openzeppelin/contracts/access/Ownable.sol\";\n\ncontract Voting is Ownable {\n    struct Voter {\n        bool isRegistered;\n        bool hasVoted;\n        uint votedProposalId;\n    }\n\n    struct Proposal {\n        string description;\n        uint voteCount;\n    }\n\n    enum WorkflowStatus {\n        RegisteringVoters,\n        ProposalsRegistrationStarted,\n        ProposalsRegistrationEnded,\n        VotingSessionStarted,\n        VotingSessionEnded,\n        VotesTallied\n    }\n\n    mapping (address => Voter) public _voters;\n    address[] public voters;\n    Proposal[] public proposals;\n    WorkflowStatus public status = WorkflowStatus.RegisteringVoters;\n    uint winningProposalId;\n\n    event VoterRegistered(address voterAddress); \n    event WorkflowStatusChange(WorkflowStatus previousStatus, WorkflowStatus newStatus);\n    event ProposalRegistered(uint proposalId);\n    event Voted (address voter, uint proposalId);\n\n    modifier isRegistered() {\n        require(_voters[msg.sender].isRegistered, \"Voter not registered\");\n        _;\n    }\n\n    function changeStatus(WorkflowStatus _newStatus) public onlyOwner {\n        require(_newStatus >= WorkflowStatus.RegisteringVoters || _newStatus > WorkflowStatus.VotesTallied, \"Status does not exist\");\n        WorkflowStatus _previousStatus = status;\n        status = _newStatus;\n        emit WorkflowStatusChange(_previousStatus, _newStatus);\n    }\n\n    function registerVoter(address _address) public onlyOwner {\n        require(status == WorkflowStatus.RegisteringVoters, \"Voters registrations has not started yet\");\n        require(!_voters[_address].isRegistered, \"Voter already registered\");\n        _voters[_address].isRegistered = true;\n        voters.push(_address);\n        emit VoterRegistered(_address);\n    }\n\n    function proposalRegistration(string memory _description) public isRegistered {\n        require(status == WorkflowStatus.ProposalsRegistrationStarted, \"Proposals registration has not started yet\");\n        proposals.push(Proposal(_description, 0));\n        emit ProposalRegistered(proposals.length -1);\n    }\n\n    function vote(uint _proposalId) public isRegistered {\n        require(status == WorkflowStatus.VotingSessionStarted, \"Voting session has not started yet\");\n        require(_proposalId < proposals.length, \"Proposal not found\");\n        require(!_voters[msg.sender].hasVoted, \"Voter has already voted\");\n        _voters[msg.sender].votedProposalId = _proposalId;\n        _voters[msg.sender].hasVoted = true;\n        proposals[_proposalId].voteCount ++;\n        emit Voted(msg.sender, _proposalId);        \n    }\n\n    function tally() public onlyOwner {\n        require(status == WorkflowStatus.VotingSessionEnded, \"Voting session has not ended yet\");\n        require(proposals.length != 0, \"There is not proposal\");\n        for (uint i = 0; i < proposals.length; i++) {\n            if (winningProposalId < proposals[i].voteCount) {\n                winningProposalId = i;\n            }\n        }\n        status = WorkflowStatus.VotesTallied;\n    }\n\n    function getWinner() public view returns(uint) {\n        require(status == WorkflowStatus.VotesTallied, \"Talling session is not finish\");\n        return winningProposalId;\n    }\n\n    function getProposals() public view returns(Proposal[] memory) {\n        return proposals;\n    }\n\n    function getVoter() public view returns(address[] memory) {\n        return voters;\n    }\n}",
  "sourcePath": "/home/vincent/Alyra/Dapp/test/contracts/Voting.sol",
  "compiler": {
    "name": "solc",
    "version": "0.8.10+commit.fc410830.Emscripten.clang"
  },
  "schemaVersion": "3.4.4",
  "updatedAt": "2022-02-16T10:03:41.435Z",
  "networkType": "ethereum",
  "devdoc": {
    "kind": "dev",
    "methods": {
      "owner()": {
        "details": "Returns the address of the current owner."
      },
      "renounceOwnership()": {
        "details": "Leaves the contract without owner. It will not be possible to call `onlyOwner` functions anymore. Can only be called by the current owner. NOTE: Renouncing ownership will leave the contract without an owner, thereby removing any functionality that is only available to the owner."
      },
      "transferOwnership(address)": {
        "details": "Transfers ownership of the contract to a new account (`newOwner`). Can only be called by the current owner."
      }
    },
    "version": 1
  },
  "userdoc": {
    "kind": "user",
    "methods": {},
    "version": 1
  }
}