{
  "contractName": "VaultContract",
  "abi": [
    {
      "inputs": [
        {
          "internalType": "address",
          "name": "token_address",
          "type": "address"
        },
        {
          "internalType": "address",
          "name": "VaultToken_address",
          "type": "address"
        }
      ],
      "stateMutability": "nonpayable",
      "type": "constructor"
    },
    {
      "anonymous": false,
      "inputs": [
        {
          "indexed": false,
          "internalType": "address",
          "name": "from",
          "type": "address"
        },
        {
          "indexed": false,
          "internalType": "uint256",
          "name": "amount",
          "type": "uint256"
        }
      ],
      "name": "Deposit",
      "type": "event"
    },
    {
      "anonymous": false,
      "inputs": [
        {
          "indexed": false,
          "internalType": "address",
          "name": "from",
          "type": "address"
        },
        {
          "indexed": false,
          "internalType": "uint256",
          "name": "amount",
          "type": "uint256"
        }
      ],
      "name": "Witdhraw",
      "type": "event"
    },
    {
      "inputs": [],
      "name": "token",
      "outputs": [
        {
          "internalType": "contract Token",
          "name": "",
          "type": "address"
        }
      ],
      "stateMutability": "view",
      "type": "function",
      "constant": true
    },
    {
      "inputs": [],
      "name": "vaultToken",
      "outputs": [
        {
          "internalType": "contract VaultToken",
          "name": "",
          "type": "address"
        }
      ],
      "stateMutability": "view",
      "type": "function",
      "constant": true
    },
    {
      "inputs": [
        {
          "internalType": "uint256",
          "name": "amount",
          "type": "uint256"
        }
      ],
      "name": "depositToken",
      "outputs": [],
      "stateMutability": "nonpayable",
      "type": "function"
    },
    {
      "inputs": [
        {
          "internalType": "uint256",
          "name": "amount",
          "type": "uint256"
        }
      ],
      "name": "withdrawToken",
      "outputs": [],
      "stateMutability": "nonpayable",
      "type": "function"
    },
    {
      "inputs": [
        {
          "internalType": "uint256",
          "name": "amount",
          "type": "uint256"
        }
      ],
      "name": "getProofTokensValue",
      "outputs": [
        {
          "internalType": "uint256",
          "name": "",
          "type": "uint256"
        }
      ],
      "stateMutability": "view",
      "type": "function",
      "constant": true
    },
    {
      "inputs": [
        {
          "internalType": "address",
          "name": "user",
          "type": "address"
        }
      ],
      "name": "getUserReward",
      "outputs": [
        {
          "internalType": "uint256",
          "name": "",
          "type": "uint256"
        }
      ],
      "stateMutability": "view",
      "type": "function",
      "constant": true
    },
    {
      "inputs": [
        {
          "internalType": "address",
          "name": "user",
          "type": "address"
        }
      ],
      "name": "getUserDeposit",
      "outputs": [
        {
          "internalType": "uint256",
          "name": "",
          "type": "uint256"
        }
      ],
      "stateMutability": "view",
      "type": "function",
      "constant": true
    },
    {
      "inputs": [],
      "name": "getLatestPrice",
      "outputs": [
        {
          "internalType": "int256",
          "name": "",
          "type": "int256"
        }
      ],
      "stateMutability": "view",
      "type": "function",
      "constant": true
    }
  ],
  "bytecode": "0x60806040523480156200001157600080fd5b50604051620019dd380380620019dd833981810160405281019062000037919062000187565b81600260006101000a81548173ffffffffffffffffffffffffffffffffffffffff021916908373ffffffffffffffffffffffffffffffffffffffff16021790555080600360006101000a81548173ffffffffffffffffffffffffffffffffffffffff021916908373ffffffffffffffffffffffffffffffffffffffff16021790555042600581905550738a753747a1fa494ec906ce90e9f37563a8af630e600460006101000a81548173ffffffffffffffffffffffffffffffffffffffff021916908373ffffffffffffffffffffffffffffffffffffffff1602179055505050620001ce565b600080fd5b600073ffffffffffffffffffffffffffffffffffffffff82169050919050565b60006200014f8262000122565b9050919050565b620001618162000142565b81146200016d57600080fd5b50565b600081519050620001818162000156565b92915050565b60008060408385031215620001a157620001a06200011d565b5b6000620001b18582860162000170565b9250506020620001c48582860162000170565b9150509250929050565b6117ff80620001de6000396000f3fe608060405234801561001057600080fd5b50600436106100a5576000357c010000000000000000000000000000000000000000000000000000000090048063b75c853611610078578063b75c85361461011e578063c084b10b1461014e578063c75ebb821461017e578063fc0c546a146101ae576100a5565b806350baa622146100aa5780636215be77146100c6578063703bafd5146100e25780638e15f47314610100575b600080fd5b6100c460048036038101906100bf9190610eef565b6101cc565b005b6100e060048036038101906100db9190610eef565b610544565b005b6100ea610839565b6040516100f79190610f9b565b60405180910390f35b61010861085f565b6040516101159190610fcf565b60405180910390f35b61013860048036038101906101339190610eef565b61091c565b6040516101459190610ff9565b60405180910390f35b61016860048036038101906101639190611052565b610976565b6040516101759190610ff9565b60405180910390f35b61019860048036038101906101939190611052565b6109bf565b6040516101a59190610ff9565b60405180910390f35b6101b6610ab3565b6040516101c391906110a0565b60405180910390f35b60006101d78261091c565b905080600360009054906101000a900473ffffffffffffffffffffffffffffffffffffffff1673ffffffffffffffffffffffffffffffffffffffff166370a08231336040518263ffffffff167c010000000000000000000000000000000000000000000000000000000002815260040161025191906110ca565b602060405180830381865afa15801561026e573d6000803e3d6000fd5b505050506040513d601f19601f8201168201806040525081019061029291906110fa565b10156102d3576040517f08c379a00000000000000000000000000000000000000000000000000000000081526004016102ca90611184565b60405180910390fd5b806000803373ffffffffffffffffffffffffffffffffffffffff1673ffffffffffffffffffffffffffffffffffffffff168152602001908152602001600020600082825461032191906111d3565b92505081905550600160003373ffffffffffffffffffffffffffffffffffffffff1673ffffffffffffffffffffffffffffffffffffffff1681526020019081526020016000205482106103b8576000600160003373ffffffffffffffffffffffffffffffffffffffff1673ffffffffffffffffffffffffffffffffffffffff1681526020019081526020016000208190555061040f565b81600160003373ffffffffffffffffffffffffffffffffffffffff1673ffffffffffffffffffffffffffffffffffffffff168152602001908152602001600020600082825461040791906111d3565b925050819055505b600360009054906101000a900473ffffffffffffffffffffffffffffffffffffffff1673ffffffffffffffffffffffffffffffffffffffff16639dc29fac33836040518363ffffffff167c0100000000000000000000000000000000000000000000000000000000028152600401610488929190611207565b600060405180830381600087803b1580156104a257600080fd5b505af11580156104b6573d6000803e3d6000fd5b505050506105073383600260009054906101000a900473ffffffffffffffffffffffffffffffffffffffff1673ffffffffffffffffffffffffffffffffffffffff16610ad99092919063ffffffff16565b7f4459ff64b3dd56d0612626d676235a3f71edb36f99760abf9a9bf111860e25413383604051610538929190611207565b60405180910390a15050565b60008111801561060b575080600260009054906101000a900473ffffffffffffffffffffffffffffffffffffffff1673ffffffffffffffffffffffffffffffffffffffff166370a08231336040518263ffffffff167c01000000000000000000000000000000000000000000000000000000000281526004016105c791906110ca565b602060405180830381865afa1580156105e4573d6000803e3d6000fd5b505050506040513d601f19601f8201168201806040525081019061060891906110fa565b10155b61064a576040517f08c379a00000000000000000000000000000000000000000000000000000000081526004016106419061127c565b60405180910390fd5b610699333083600260009054906101000a900473ffffffffffffffffffffffffffffffffffffffff1673ffffffffffffffffffffffffffffffffffffffff16610b7b909392919063ffffffff16565b60006106a48261091c565b9050600360009054906101000a900473ffffffffffffffffffffffffffffffffffffffff1673ffffffffffffffffffffffffffffffffffffffff166340c10f1933836040518363ffffffff167c010000000000000000000000000000000000000000000000000000000002815260040161071f929190611207565b600060405180830381600087803b15801561073957600080fd5b505af115801561074d573d6000803e3d6000fd5b5050505081600160003373ffffffffffffffffffffffffffffffffffffffff1673ffffffffffffffffffffffffffffffffffffffff16815260200190815260200160002060008282546107a0919061129c565b92505081905550806000803373ffffffffffffffffffffffffffffffffffffffff1673ffffffffffffffffffffffffffffffffffffffff16815260200190815260200160002060008282546107f5919061129c565b925050819055507fe1fffcc4923d04b559f4d29a8bfc6cda04eb5b0d3c460751c2402c5c5cc9109c338360405161082d929190611207565b60405180910390a15050565b600360009054906101000a900473ffffffffffffffffffffffffffffffffffffffff1681565b600080600460009054906101000a900473ffffffffffffffffffffffffffffffffffffffff1673ffffffffffffffffffffffffffffffffffffffff1663feaf968c6040518163ffffffff167c010000000000000000000000000000000000000000000000000000000002815260040160a060405180830381865afa1580156108eb573d6000803e3d6000fd5b505050506040513d601f19601f8201168201806040525081019061090f9190611360565b5050509150508091505090565b6000806005544261092d91906111d3565b9050600081682086ac351052600000610946919061140a565b90506000670de0b6b3a7640000828661095f919061143b565b610969919061140a565b9050809350505050919050565b6000600160008373ffffffffffffffffffffffffffffffffffffffff1673ffffffffffffffffffffffffffffffffffffffff168152602001908152602001600020549050919050565b600080670de0b6b3a7640000600554426109d991906111d3565b6109e3919061143b565b90506000610258826109f5919061140a565b90506000670de0b6b3a7640000826000808873ffffffffffffffffffffffffffffffffffffffff1673ffffffffffffffffffffffffffffffffffffffff16815260200190815260200160002054610a4c919061143b565b610a56919061140a565b90506000600160008773ffffffffffffffffffffffffffffffffffffffff1673ffffffffffffffffffffffffffffffffffffffff1681526020019081526020016000205482610aa591906111d3565b905080945050505050919050565b600260009054906101000a900473ffffffffffffffffffffffffffffffffffffffff1681565b610b768363a9059cbb7c0100000000000000000000000000000000000000000000000000000000028484604051602401610b14929190611207565b604051602081830303815290604052907bffffffffffffffffffffffffffffffffffffffffffffffffffffffff19166020820180517bffffffffffffffffffffffffffffffffffffffffffffffffffffffff8381831617835250505050610c20565b505050565b610c1a846323b872dd7c010000000000000000000000000000000000000000000000000000000002858585604051602401610bb893929190611495565b604051602081830303815290604052907bffffffffffffffffffffffffffffffffffffffffffffffffffffffff19166020820180517bffffffffffffffffffffffffffffffffffffffffffffffffffffffff8381831617835250505050610c20565b50505050565b6000610c82826040518060400160405280602081526020017f5361666545524332303a206c6f772d6c6576656c2063616c6c206661696c65648152508573ffffffffffffffffffffffffffffffffffffffff16610ce79092919063ffffffff16565b9050600081511115610ce25780806020019051810190610ca29190611504565b610ce1576040517f08c379a0000000000000000000000000000000000000000000000000000000008152600401610cd8906115a3565b60405180910390fd5b5b505050565b6060610cf68484600085610cff565b90509392505050565b6060823073ffffffffffffffffffffffffffffffffffffffff16311015610d5b576040517f08c379a0000000000000000000000000000000000000000000000000000000008152600401610d5290611635565b60405180910390fd5b610d6485610e2a565b610da3576040517f08c379a0000000000000000000000000000000000000000000000000000000008152600401610d9a906116a1565b60405180910390fd5b6000808673ffffffffffffffffffffffffffffffffffffffff168587604051610dcc919061173b565b60006040518083038185875af1925050503d8060008114610e09576040519150601f19603f3d011682016040523d82523d6000602084013e610e0e565b606091505b5091509150610e1e828286610e4d565b92505050949350505050565b6000808273ffffffffffffffffffffffffffffffffffffffff163b119050919050565b60608315610e5d57829050610ead565b600083511115610e705782518084602001fd5b816040517f08c379a0000000000000000000000000000000000000000000000000000000008152600401610ea491906117a7565b60405180910390fd5b9392505050565b600080fd5b6000819050919050565b610ecc81610eb9565b8114610ed757600080fd5b50565b600081359050610ee981610ec3565b92915050565b600060208284031215610f0557610f04610eb4565b5b6000610f1384828501610eda565b91505092915050565b600073ffffffffffffffffffffffffffffffffffffffff82169050919050565b6000819050919050565b6000610f61610f5c610f5784610f1c565b610f3c565b610f1c565b9050919050565b6000610f7382610f46565b9050919050565b6000610f8582610f68565b9050919050565b610f9581610f7a565b82525050565b6000602082019050610fb06000830184610f8c565b92915050565b6000819050919050565b610fc981610fb6565b82525050565b6000602082019050610fe46000830184610fc0565b92915050565b610ff381610eb9565b82525050565b600060208201905061100e6000830184610fea565b92915050565b600061101f82610f1c565b9050919050565b61102f81611014565b811461103a57600080fd5b50565b60008135905061104c81611026565b92915050565b60006020828403121561106857611067610eb4565b5b60006110768482850161103d565b91505092915050565b600061108a82610f68565b9050919050565b61109a8161107f565b82525050565b60006020820190506110b56000830184611091565b92915050565b6110c481611014565b82525050565b60006020820190506110df60008301846110bb565b92915050565b6000815190506110f481610ec3565b92915050565b6000602082840312156111105761110f610eb4565b5b600061111e848285016110e5565b91505092915050565b600082825260208201905092915050565b7f6e6f7420656e6f75676820746f6b656e73200000000000000000000000000000600082015250565b600061116e601283611127565b915061117982611138565b602082019050919050565b6000602082019050818103600083015261119d81611161565b9050919050565b7f4e487b7100000000000000000000000000000000000000000000000000000000600052601160045260246000fd5b60006111de82610eb9565b91506111e983610eb9565b9250828210156111fc576111fb6111a4565b5b828203905092915050565b600060408201905061121c60008301856110bb565b6112296020830184610fea565b9392505050565b7f20696e73756666696369656e742062616c616e63650000000000000000000000600082015250565b6000611266601583611127565b915061127182611230565b602082019050919050565b6000602082019050818103600083015261129581611259565b9050919050565b60006112a782610eb9565b91506112b283610eb9565b9250827fffffffffffffffffffffffffffffffffffffffffffffffffffffffffffffffff038211156112e7576112e66111a4565b5b828201905092915050565b600069ffffffffffffffffffff82169050919050565b611311816112f2565b811461131c57600080fd5b50565b60008151905061132e81611308565b92915050565b61133d81610fb6565b811461134857600080fd5b50565b60008151905061135a81611334565b92915050565b600080600080600060a0868803121561137c5761137b610eb4565b5b600061138a8882890161131f565b955050602061139b8882890161134b565b94505060406113ac888289016110e5565b93505060606113bd888289016110e5565b92505060806113ce8882890161131f565b9150509295509295909350565b7f4e487b7100000000000000000000000000000000000000000000000000000000600052601260045260246000fd5b600061141582610eb9565b915061142083610eb9565b9250826114305761142f6113db565b5b828204905092915050565b600061144682610eb9565b915061145183610eb9565b9250817fffffffffffffffffffffffffffffffffffffffffffffffffffffffffffffffff048311821515161561148a576114896111a4565b5b828202905092915050565b60006060820190506114aa60008301866110bb565b6114b760208301856110bb565b6114c46040830184610fea565b949350505050565b60008115159050919050565b6114e1816114cc565b81146114ec57600080fd5b50565b6000815190506114fe816114d8565b92915050565b60006020828403121561151a57611519610eb4565b5b6000611528848285016114ef565b91505092915050565b7f5361666545524332303a204552433230206f7065726174696f6e20646964206e60008201527f6f74207375636365656400000000000000000000000000000000000000000000602082015250565b600061158d602a83611127565b915061159882611531565b604082019050919050565b600060208201905081810360008301526115bc81611580565b9050919050565b7f416464726573733a20696e73756666696369656e742062616c616e636520666f60008201527f722063616c6c0000000000000000000000000000000000000000000000000000602082015250565b600061161f602683611127565b915061162a826115c3565b604082019050919050565b6000602082019050818103600083015261164e81611612565b9050919050565b7f416464726573733a2063616c6c20746f206e6f6e2d636f6e7472616374000000600082015250565b600061168b601d83611127565b915061169682611655565b602082019050919050565b600060208201905081810360008301526116ba8161167e565b9050919050565b600081519050919050565b600081905092915050565b60005b838110156116f55780820151818401526020810190506116da565b83811115611704576000848401525b50505050565b6000611715826116c1565b61171f81856116cc565b935061172f8185602086016116d7565b80840191505092915050565b6000611747828461170a565b915081905092915050565b600081519050919050565b6000601f19601f8301169050919050565b600061177982611752565b6117838185611127565b93506117938185602086016116d7565b61179c8161175d565b840191505092915050565b600060208201905081810360008301526117c1818461176e565b90509291505056fea26469706673582212206b013f540f751b0edef27351a0d8da45839a9dd1f684f7c2ae9b84adad3a0e4964736f6c634300080a0033",
  "immutableReferences": {},
  "source": "// SPDX-License-Identifier: MIT\npragma solidity ^0.8.4;\n\nimport \"./VaultToken.sol\";\nimport \"./Token.sol\";\nimport \"@openzeppelin/contracts/token/ERC20//utils/SafeERC20.sol\";\nimport \"@chainlink/contracts/src/v0.8/interfaces/AggregatorV3Interface.sol\";\n\n/**\n *  Implementation of the VaultContract .\n *\n * This Smart Contract is an implementation of a vault that allows a user to deposit an ERC20 token in exchage of a ProofToken provided by the vault.\n * The the conversion rate ProofToken/ Token increases by time. So basicly the user is staking his token to get some rewards\n * The users are allowed to withdraw their Token by providing the ProofToken.\n *\n */\n\ncontract VaultContract {\n    using SafeERC20 for Token;\n\n    // the current balance of Proof Tokens minted for each user\n    mapping(address => uint256) balance;\n    // the current balance of deposited Tokens for each user\n    mapping(address => uint256) deposit;\n\n    Token public token;\n    VaultToken public vaultToken;\n    AggregatorV3Interface internal priceFeed;\n\n    // the exact time when the contract is deployed\n    uint256 startingTime;\n\n    event Deposit(address from, uint256 amount);\n    event Witdhraw(address from, uint256 amount);\n\n    constructor(address token_address, address VaultToken_address) {\n        token = Token(token_address);\n        vaultToken = VaultToken(VaultToken_address);\n        startingTime = block.timestamp;\n        priceFeed = AggregatorV3Interface(\n            0x8A753747A1Fa494EC906cE90E9f37563A8AF630e\n        );\n    }\n\n    /**\n     * this function takes in parameter the amount that the user wants to deposit, transfer it\n     *  to the smart contract and then mint to ProofToken equivalent to that amount\n     */\n\n    function depositToken(uint256 amount) external {\n        require(\n            amount > 0 && token.balanceOf(msg.sender) >= amount,\n            \" insufficient balance\"\n        );\n\n        /* We should ask for the \"approval\" of the user  */\n\n        token.safeTransferFrom(msg.sender, address(this), amount);\n        uint256 toMint = getProofTokensValue(amount);\n        vaultToken.mint(msg.sender, toMint);\n        deposit[msg.sender] += amount;\n        balance[msg.sender] += toMint;\n        emit Deposit(msg.sender, amount);\n    }\n\n    /**\n     * this function takes in parameter the amount that the user wants to withdraw, transfer it\n     * to the user wallet and then burn to ProofToken equivalent to that amount\n     */\n\n    function withdrawToken(uint256 amount) external {\n        uint256 value = getProofTokensValue(amount);\n        require(\n            vaultToken.balanceOf(msg.sender) >= value,\n            \"not enough tokens \"\n        );\n        balance[msg.sender] -= value;\n        if (amount >= deposit[msg.sender]) {\n            deposit[msg.sender] = 0;\n        } else {\n            deposit[msg.sender] -= amount;\n        }\n        vaultToken.burn(msg.sender, value);\n        token.safeTransfer(msg.sender, amount);\n        emit Witdhraw(msg.sender, amount);\n    }\n\n    /**\n     * this function takes in parameter an  amount of Tokens, and convert it to the  equivalent  amount of the\n     * ProofToken at the time of calling the function\n     */\n\n    function getProofTokensValue(uint256 amount) public view returns (uint256) {\n        uint256 time = (block.timestamp - startingTime);\n        uint256 rate = (600 * (10**18)) / time;\n        uint256 newValue = (amount * rate) / 10**18;\n        return newValue;\n    }\n\n    /**\n     * this function takes in parameter an  address of a user , and calculate the reward of staking by subtracting the actual balance\n     * of Proof Tokens ( converted to the amount of token) from the total amount of the deposited tokens.\n     */\n\n    function getUserReward(address user) public view returns (uint256) {\n        uint256 time = (block.timestamp - startingTime) * 10**18;\n        uint256 rate = time / 600;\n        uint256 value = (balance[user] * rate) / 10**18;\n        uint256 reward = value - deposit[user];\n\n        return reward;\n    }\n\n    /**\n     * this function takes in parameter an  address of a user , and returns the  total amount of the deposited tokens.\n     */\n\n    function getUserDeposit(address user) public view returns (uint256) {\n        return deposit[user];\n    }\n\n    /**\n     * this function retunr current ETH price from oracle\n     */\n\n    function getLatestPrice() public view returns (int256) {\n        (, int256 price, , , ) = priceFeed.latestRoundData();\n        return price;\n    }\n}\n",
  "sourcePath": "/home/vincent/dev/Training/DeFi/contracts/VaultContract.sol",
  "compiler": {
    "name": "solc",
    "version": "0.8.10+commit.fc410830.Emscripten.clang"
  },
  "schemaVersion": "3.4.6",
  "updatedAt": "2022-04-11T08:52:32.142Z",
  "networkType": "ethereum",
  "devdoc": {
    "kind": "dev",
    "methods": {},
    "version": 1
  },
  "userdoc": {
    "kind": "user",
    "methods": {
      "depositToken(uint256)": {
        "notice": "this function takes in parameter the amount that the user wants to deposit, transfer it  to the smart contract and then mint to ProofToken equivalent to that amount"
      },
      "getLatestPrice()": {
        "notice": "this function retunr current ETH price from oracle"
      },
      "getProofTokensValue(uint256)": {
        "notice": "this function takes in parameter an  amount of Tokens, and convert it to the  equivalent  amount of the ProofToken at the time of calling the function"
      },
      "getUserDeposit(address)": {
        "notice": "this function takes in parameter an  address of a user , and returns the  total amount of the deposited tokens."
      },
      "getUserReward(address)": {
        "notice": "this function takes in parameter an  address of a user , and calculate the reward of staking by subtracting the actual balance of Proof Tokens ( converted to the amount of token) from the total amount of the deposited tokens."
      },
      "withdrawToken(uint256)": {
        "notice": "this function takes in parameter the amount that the user wants to withdraw, transfer it to the user wallet and then burn to ProofToken equivalent to that amount"
      }
    },
    "notice": "Implementation of the VaultContract . This Smart Contract is an implementation of a vault that allows a user to deposit an ERC20 token in exchage of a ProofToken provided by the vault. The the conversion rate ProofToken/ Token increases by time. So basicly the user is staking his token to get some rewards The users are allowed to withdraw their Token by providing the ProofToken.",
    "version": 1
  }
}