{
  "contractName": "VaultContract",
  "abi": [
    {
      "inputs": [
        {
          "internalType": "address",
          "name": "token_address",
          "type": "address"
        },
        {
          "internalType": "address",
          "name": "VaultToken_address",
          "type": "address"
        }
      ],
      "stateMutability": "nonpayable",
      "type": "constructor"
    },
    {
      "anonymous": false,
      "inputs": [
        {
          "indexed": false,
          "internalType": "address",
          "name": "from",
          "type": "address"
        },
        {
          "indexed": false,
          "internalType": "uint256",
          "name": "amount",
          "type": "uint256"
        }
      ],
      "name": "Deposit",
      "type": "event"
    },
    {
      "anonymous": false,
      "inputs": [
        {
          "indexed": false,
          "internalType": "address",
          "name": "from",
          "type": "address"
        },
        {
          "indexed": false,
          "internalType": "uint256",
          "name": "amount",
          "type": "uint256"
        }
      ],
      "name": "Witdhraw",
      "type": "event"
    },
    {
      "inputs": [],
      "name": "token",
      "outputs": [
        {
          "internalType": "contract Token",
          "name": "",
          "type": "address"
        }
      ],
      "stateMutability": "view",
      "type": "function",
      "constant": true
    },
    {
      "inputs": [],
      "name": "vaultToken",
      "outputs": [
        {
          "internalType": "contract VaultToken",
          "name": "",
          "type": "address"
        }
      ],
      "stateMutability": "view",
      "type": "function",
      "constant": true
    },
    {
      "inputs": [
        {
          "internalType": "uint256",
          "name": "amount",
          "type": "uint256"
        }
      ],
      "name": "depositToken",
      "outputs": [],
      "stateMutability": "nonpayable",
      "type": "function"
    },
    {
      "inputs": [
        {
          "internalType": "uint256",
          "name": "amount",
          "type": "uint256"
        }
      ],
      "name": "withdrawToken",
      "outputs": [],
      "stateMutability": "nonpayable",
      "type": "function"
    },
    {
      "inputs": [
        {
          "internalType": "uint256",
          "name": "amount",
          "type": "uint256"
        }
      ],
      "name": "getProofTokensValue",
      "outputs": [
        {
          "internalType": "uint256",
          "name": "",
          "type": "uint256"
        }
      ],
      "stateMutability": "view",
      "type": "function",
      "constant": true
    },
    {
      "inputs": [
        {
          "internalType": "address",
          "name": "user",
          "type": "address"
        }
      ],
      "name": "getUserReward",
      "outputs": [
        {
          "internalType": "uint256",
          "name": "",
          "type": "uint256"
        }
      ],
      "stateMutability": "view",
      "type": "function",
      "constant": true
    },
    {
      "inputs": [
        {
          "internalType": "address",
          "name": "user",
          "type": "address"
        }
      ],
      "name": "getUserDeposit",
      "outputs": [
        {
          "internalType": "uint256",
          "name": "",
          "type": "uint256"
        }
      ],
      "stateMutability": "view",
      "type": "function",
      "constant": true
    }
  ],
  "bytecode": "0x60806040523480156200001157600080fd5b50604051620017b1380380620017b1833981810160405281019062000037919062000132565b81600260006101000a81548173ffffffffffffffffffffffffffffffffffffffff021916908373ffffffffffffffffffffffffffffffffffffffff16021790555080600360006101000a81548173ffffffffffffffffffffffffffffffffffffffff021916908373ffffffffffffffffffffffffffffffffffffffff16021790555042600481905550505062000179565b600080fd5b600073ffffffffffffffffffffffffffffffffffffffff82169050919050565b6000620000fa82620000cd565b9050919050565b6200010c81620000ed565b81146200011857600080fd5b50565b6000815190506200012c8162000101565b92915050565b600080604083850312156200014c576200014b620000c8565b5b60006200015c858286016200011b565b92505060206200016f858286016200011b565b9150509250929050565b61162880620001896000396000f3fe608060405234801561001057600080fd5b506004361061009a576000357c010000000000000000000000000000000000000000000000000000000090048063b75c853611610078578063b75c8536146100f5578063c084b10b14610125578063c75ebb8214610155578063fc0c546a146101855761009a565b806350baa6221461009f5780636215be77146100bb578063703bafd5146100d7575b600080fd5b6100b960048036038101906100b49190610e35565b6101a3565b005b6100d560048036038101906100d09190610e35565b61048a565b005b6100df61083c565b6040516100ec9190610ee1565b60405180910390f35b61010f600480360381019061010a9190610e35565b610862565b60405161011c9190610f0b565b60405180910390f35b61013f600480360381019061013a9190610f64565b6108bc565b60405161014c9190610f0b565b60405180910390f35b61016f600480360381019061016a9190610f64565b610905565b60405161017c9190610f0b565b60405180910390f35b61018d6109f9565b60405161019a9190610fb2565b60405180910390f35b60006101ae82610862565b905080600360009054906101000a900473ffffffffffffffffffffffffffffffffffffffff1673ffffffffffffffffffffffffffffffffffffffff166370a08231336040518263ffffffff167c01000000000000000000000000000000000000000000000000000000000281526004016102289190610fdc565b602060405180830381865afa158015610245573d6000803e3d6000fd5b505050506040513d601f19601f82011682018060405250810190610269919061100c565b10156102aa576040517f08c379a00000000000000000000000000000000000000000000000000000000081526004016102a190611096565b60405180910390fd5b806000803373ffffffffffffffffffffffffffffffffffffffff1673ffffffffffffffffffffffffffffffffffffffff16815260200190815260200160002060008282546102f891906110e5565b9250508190555081600160003373ffffffffffffffffffffffffffffffffffffffff1673ffffffffffffffffffffffffffffffffffffffff168152602001908152602001600020600082825461034e91906110e5565b92505081905550600360009054906101000a900473ffffffffffffffffffffffffffffffffffffffff1673ffffffffffffffffffffffffffffffffffffffff16639dc29fac33836040518363ffffffff167c01000000000000000000000000000000000000000000000000000000000281526004016103ce929190611119565b600060405180830381600087803b1580156103e857600080fd5b505af11580156103fc573d6000803e3d6000fd5b5050505061044d3383600260009054906101000a900473ffffffffffffffffffffffffffffffffffffffff1673ffffffffffffffffffffffffffffffffffffffff16610a1f9092919063ffffffff16565b7f4459ff64b3dd56d0612626d676235a3f71edb36f99760abf9a9bf111860e2541338360405161047e929190611119565b60405180910390a15050565b600081118015610551575080600260009054906101000a900473ffffffffffffffffffffffffffffffffffffffff1673ffffffffffffffffffffffffffffffffffffffff166370a08231336040518263ffffffff167c010000000000000000000000000000000000000000000000000000000002815260040161050d9190610fdc565b602060405180830381865afa15801561052a573d6000803e3d6000fd5b505050506040513d601f19601f8201168201806040525081019061054e919061100c565b10155b610590576040517f08c379a00000000000000000000000000000000000000000000000000000000081526004016105879061118e565b60405180910390fd5b600260009054906101000a900473ffffffffffffffffffffffffffffffffffffffff1673ffffffffffffffffffffffffffffffffffffffff1663095ea7b330836040518363ffffffff167c0100000000000000000000000000000000000000000000000000000000028152600401610609929190611119565b6020604051808303816000875af1158015610628573d6000803e3d6000fd5b505050506040513d601f19601f8201168201806040525081019061064c91906111e6565b5061069c333083600260009054906101000a900473ffffffffffffffffffffffffffffffffffffffff1673ffffffffffffffffffffffffffffffffffffffff16610ac1909392919063ffffffff16565b60006106a782610862565b9050600360009054906101000a900473ffffffffffffffffffffffffffffffffffffffff1673ffffffffffffffffffffffffffffffffffffffff166340c10f1933836040518363ffffffff167c0100000000000000000000000000000000000000000000000000000000028152600401610722929190611119565b600060405180830381600087803b15801561073c57600080fd5b505af1158015610750573d6000803e3d6000fd5b5050505081600160003373ffffffffffffffffffffffffffffffffffffffff1673ffffffffffffffffffffffffffffffffffffffff16815260200190815260200160002060008282546107a39190611213565b92505081905550806000803373ffffffffffffffffffffffffffffffffffffffff1673ffffffffffffffffffffffffffffffffffffffff16815260200190815260200160002060008282546107f89190611213565b925050819055507fe1fffcc4923d04b559f4d29a8bfc6cda04eb5b0d3c460751c2402c5c5cc9109c3383604051610830929190611119565b60405180910390a15050565b600360009054906101000a900473ffffffffffffffffffffffffffffffffffffffff1681565b6000806004544261087391906110e5565b9050600081682086ac35105260000061088c9190611298565b90506000670de0b6b3a764000082866108a591906112c9565b6108af9190611298565b9050809350505050919050565b6000600160008373ffffffffffffffffffffffffffffffffffffffff1673ffffffffffffffffffffffffffffffffffffffff168152602001908152602001600020549050919050565b600080670de0b6b3a76400006004544261091f91906110e5565b61092991906112c9565b905060006102588261093b9190611298565b90506000670de0b6b3a7640000826000808873ffffffffffffffffffffffffffffffffffffffff1673ffffffffffffffffffffffffffffffffffffffff1681526020019081526020016000205461099291906112c9565b61099c9190611298565b90506000600160008773ffffffffffffffffffffffffffffffffffffffff1673ffffffffffffffffffffffffffffffffffffffff16815260200190815260200160002054826109eb91906110e5565b905080945050505050919050565b600260009054906101000a900473ffffffffffffffffffffffffffffffffffffffff1681565b610abc8363a9059cbb7c0100000000000000000000000000000000000000000000000000000000028484604051602401610a5a929190611119565b604051602081830303815290604052907bffffffffffffffffffffffffffffffffffffffffffffffffffffffff19166020820180517bffffffffffffffffffffffffffffffffffffffffffffffffffffffff8381831617835250505050610b66565b505050565b610b60846323b872dd7c010000000000000000000000000000000000000000000000000000000002858585604051602401610afe93929190611323565b604051602081830303815290604052907bffffffffffffffffffffffffffffffffffffffffffffffffffffffff19166020820180517bffffffffffffffffffffffffffffffffffffffffffffffffffffffff8381831617835250505050610b66565b50505050565b6000610bc8826040518060400160405280602081526020017f5361666545524332303a206c6f772d6c6576656c2063616c6c206661696c65648152508573ffffffffffffffffffffffffffffffffffffffff16610c2d9092919063ffffffff16565b9050600081511115610c285780806020019051810190610be891906111e6565b610c27576040517f08c379a0000000000000000000000000000000000000000000000000000000008152600401610c1e906113cc565b60405180910390fd5b5b505050565b6060610c3c8484600085610c45565b90509392505050565b6060823073ffffffffffffffffffffffffffffffffffffffff16311015610ca1576040517f08c379a0000000000000000000000000000000000000000000000000000000008152600401610c989061145e565b60405180910390fd5b610caa85610d70565b610ce9576040517f08c379a0000000000000000000000000000000000000000000000000000000008152600401610ce0906114ca565b60405180910390fd5b6000808673ffffffffffffffffffffffffffffffffffffffff168587604051610d129190611564565b60006040518083038185875af1925050503d8060008114610d4f576040519150601f19603f3d011682016040523d82523d6000602084013e610d54565b606091505b5091509150610d64828286610d93565b92505050949350505050565b6000808273ffffffffffffffffffffffffffffffffffffffff163b119050919050565b60608315610da357829050610df3565b600083511115610db65782518084602001fd5b816040517f08c379a0000000000000000000000000000000000000000000000000000000008152600401610dea91906115d0565b60405180910390fd5b9392505050565b600080fd5b6000819050919050565b610e1281610dff565b8114610e1d57600080fd5b50565b600081359050610e2f81610e09565b92915050565b600060208284031215610e4b57610e4a610dfa565b5b6000610e5984828501610e20565b91505092915050565b600073ffffffffffffffffffffffffffffffffffffffff82169050919050565b6000819050919050565b6000610ea7610ea2610e9d84610e62565b610e82565b610e62565b9050919050565b6000610eb982610e8c565b9050919050565b6000610ecb82610eae565b9050919050565b610edb81610ec0565b82525050565b6000602082019050610ef66000830184610ed2565b92915050565b610f0581610dff565b82525050565b6000602082019050610f206000830184610efc565b92915050565b6000610f3182610e62565b9050919050565b610f4181610f26565b8114610f4c57600080fd5b50565b600081359050610f5e81610f38565b92915050565b600060208284031215610f7a57610f79610dfa565b5b6000610f8884828501610f4f565b91505092915050565b6000610f9c82610eae565b9050919050565b610fac81610f91565b82525050565b6000602082019050610fc76000830184610fa3565b92915050565b610fd681610f26565b82525050565b6000602082019050610ff16000830184610fcd565b92915050565b60008151905061100681610e09565b92915050565b60006020828403121561102257611021610dfa565b5b600061103084828501610ff7565b91505092915050565b600082825260208201905092915050565b7f6e6f7420656e6f75676820746f6b656e73200000000000000000000000000000600082015250565b6000611080601283611039565b915061108b8261104a565b602082019050919050565b600060208201905081810360008301526110af81611073565b9050919050565b7f4e487b7100000000000000000000000000000000000000000000000000000000600052601160045260246000fd5b60006110f082610dff565b91506110fb83610dff565b92508282101561110e5761110d6110b6565b5b828203905092915050565b600060408201905061112e6000830185610fcd565b61113b6020830184610efc565b9392505050565b7f20696e73756666696369656e742062616c616e63650000000000000000000000600082015250565b6000611178601583611039565b915061118382611142565b602082019050919050565b600060208201905081810360008301526111a78161116b565b9050919050565b60008115159050919050565b6111c3816111ae565b81146111ce57600080fd5b50565b6000815190506111e0816111ba565b92915050565b6000602082840312156111fc576111fb610dfa565b5b600061120a848285016111d1565b91505092915050565b600061121e82610dff565b915061122983610dff565b9250827fffffffffffffffffffffffffffffffffffffffffffffffffffffffffffffffff0382111561125e5761125d6110b6565b5b828201905092915050565b7f4e487b7100000000000000000000000000000000000000000000000000000000600052601260045260246000fd5b60006112a382610dff565b91506112ae83610dff565b9250826112be576112bd611269565b5b828204905092915050565b60006112d482610dff565b91506112df83610dff565b9250817fffffffffffffffffffffffffffffffffffffffffffffffffffffffffffffffff0483118215151615611318576113176110b6565b5b828202905092915050565b60006060820190506113386000830186610fcd565b6113456020830185610fcd565b6113526040830184610efc565b949350505050565b7f5361666545524332303a204552433230206f7065726174696f6e20646964206e60008201527f6f74207375636365656400000000000000000000000000000000000000000000602082015250565b60006113b6602a83611039565b91506113c18261135a565b604082019050919050565b600060208201905081810360008301526113e5816113a9565b9050919050565b7f416464726573733a20696e73756666696369656e742062616c616e636520666f60008201527f722063616c6c0000000000000000000000000000000000000000000000000000602082015250565b6000611448602683611039565b9150611453826113ec565b604082019050919050565b600060208201905081810360008301526114778161143b565b9050919050565b7f416464726573733a2063616c6c20746f206e6f6e2d636f6e7472616374000000600082015250565b60006114b4601d83611039565b91506114bf8261147e565b602082019050919050565b600060208201905081810360008301526114e3816114a7565b9050919050565b600081519050919050565b600081905092915050565b60005b8381101561151e578082015181840152602081019050611503565b8381111561152d576000848401525b50505050565b600061153e826114ea565b61154881856114f5565b9350611558818560208601611500565b80840191505092915050565b60006115708284611533565b915081905092915050565b600081519050919050565b6000601f19601f8301169050919050565b60006115a28261157b565b6115ac8185611039565b93506115bc818560208601611500565b6115c581611586565b840191505092915050565b600060208201905081810360008301526115ea8184611597565b90509291505056fea264697066735822122060fb398499771e45319cadc2a07cd62e691cc175abe19a8ebcaba1e854c989b364736f6c634300080a0033",
  "immutableReferences": {},
  "source": "// SPDX-License-Identifier: MIT\npragma solidity ^0.8.4;\n\nimport \"./VaultToken.sol\";\nimport \"./Token.sol\";\nimport \"@openzeppelin/contracts/token/ERC20//utils/SafeERC20.sol\";\n\n/**\n *  Implementation of the VaultContract .\n *\n * This Smart Contract is an implementation of a vault that allows a user to deposit an ERC20 token in exchage of a ProofToken provided by the vault.\n * The the conversion rate ProofToken/ Token increases by time. So basicly the user is staking his token to get some rewards\n * The users are allowed to withdraw their Token by providing the ProofToken.\n *\n */\n\ncontract VaultContract {\n    using SafeERC20 for Token;\n\n    // the current balance of Proof Tokens minted for each user\n    mapping(address => uint256) balance;\n    // the current balance of deposited Tokens for each user\n    mapping(address => uint256) deposit;\n\n    Token public token;\n    VaultToken public vaultToken;\n\n    // the exact time when the contract is deployed\n    uint256 startingTime;\n\n    event Deposit(address from, uint256 amount);\n    event Witdhraw(address from, uint256 amount);\n\n    constructor(\n        address token_address,\n        address VaultToken_address\n    ) {\n        token = Token(token_address);\n        vaultToken = VaultToken(VaultToken_address);\n        startingTime = block.timestamp;\n    }\n\n    /**\n     * this function takes in parameter the amount that the user wants to deposit, transfer it\n     *  to the smart contract and then mint to ProofToken equivalent to that amount\n     */\n\n    function depositToken(uint256 amount) external {\n        require(\n            amount > 0 && token.balanceOf(msg.sender) >= amount,\n            \" insufficient balance\"\n        );\n\n        /* We should ask for the  \"approval\" of the user  */\n        token.approve(address(this), amount);\n        token.safeTransferFrom(msg.sender, address(this), amount);\n        uint256 toMint = getProofTokensValue(amount);\n        vaultToken.mint(msg.sender, toMint);\n        deposit[msg.sender] += amount;\n        balance[msg.sender] += toMint;\n        emit Deposit(msg.sender, amount);\n    }\n\n    /**\n     * this function takes in parameter the amount that the user wants to withdraw, transfer it\n     * to the user wallet and then burn to ProofToken equivalent to that amount\n     */\n\n    function withdrawToken(uint256 amount) external {\n        uint256 value = getProofTokensValue(amount);\n        require(\n            vaultToken.balanceOf(msg.sender) >= value,\n            \"not enough tokens \"\n        );\n        balance[msg.sender] -= value;\n        deposit[msg.sender] -= amount;\n        vaultToken.burn(msg.sender, value);\n        token.safeTransfer(msg.sender, amount);\n        emit Witdhraw(msg.sender, amount);\n    }\n\n    /**\n     * this function takes in parameter an  amount of Tokens, and convert it to the  equivalent  amount of the\n     * ProofToken at the time of calling the function\n     */\n\n    function getProofTokensValue(uint256 amount) public view returns (uint256) {\n        uint256 time = (block.timestamp - startingTime);\n        uint256 rate = (600 * (10**18)) / time;\n        uint256 newValue = (amount * rate) / 10**18;\n        return newValue;\n    }\n\n    /**\n     * this function takes in parameter an  address of a user , and calculate the reward of staking by subtracting the actual balance\n     * of Proof Tokens ( converted to the amount of token) from the total amount of the deposited tokens.\n     */\n\n    function getUserReward(address user) public view returns (uint256) {\n        uint256 time = (block.timestamp - startingTime) * 10**18;\n        uint256 rate = time / 600;\n        uint256 value = (balance[user] * rate) / 10**18;\n        uint256 reward = value - deposit[user];\n\n        return reward;\n    }\n\n    /**\n     * this function takes in parameter an  address of a user , and returns the  total amount of the deposited tokens.\n     */\n\n    function getUserDeposit(address user) public view returns (uint256) {\n        return deposit[user];\n    }\n}",
  "sourcePath": "/home/vincent/dev/Training/DeFi/contracts/VaultContract.sol",
  "compiler": {
    "name": "solc",
    "version": "0.8.10+commit.fc410830.Emscripten.clang"
  },
  "schemaVersion": "3.4.4",
  "updatedAt": "2022-04-03T16:52:54.286Z",
  "networkType": "ethereum",
  "devdoc": {
    "kind": "dev",
    "methods": {},
    "version": 1
  },
  "userdoc": {
    "kind": "user",
    "methods": {
      "depositToken(uint256)": {
        "notice": "this function takes in parameter the amount that the user wants to deposit, transfer it  to the smart contract and then mint to ProofToken equivalent to that amount"
      },
      "getProofTokensValue(uint256)": {
        "notice": "this function takes in parameter an  amount of Tokens, and convert it to the  equivalent  amount of the ProofToken at the time of calling the function"
      },
      "getUserDeposit(address)": {
        "notice": "this function takes in parameter an  address of a user , and returns the  total amount of the deposited tokens."
      },
      "getUserReward(address)": {
        "notice": "this function takes in parameter an  address of a user , and calculate the reward of staking by subtracting the actual balance of Proof Tokens ( converted to the amount of token) from the total amount of the deposited tokens."
      },
      "withdrawToken(uint256)": {
        "notice": "this function takes in parameter the amount that the user wants to withdraw, transfer it to the user wallet and then burn to ProofToken equivalent to that amount"
      }
    },
    "notice": "Implementation of the VaultContract . This Smart Contract is an implementation of a vault that allows a user to deposit an ERC20 token in exchage of a ProofToken provided by the vault. The the conversion rate ProofToken/ Token increases by time. So basicly the user is staking his token to get some rewards The users are allowed to withdraw their Token by providing the ProofToken.",
    "version": 1
  }
}