{
  "contractName": "SimpleStorage",
  "abi": [
    {
      "inputs": [],
      "name": "get",
      "outputs": [
        {
          "internalType": "uint256",
          "name": "",
          "type": "uint256"
        }
      ],
      "stateMutability": "view",
      "type": "function",
      "constant": true
    }
  ],
  "bytecode": "0x608060405234801561001057600080fd5b5060d38061001f6000396000f3fe6080604052348015600f57600080fd5b50600436106045576000357c0100000000000000000000000000000000000000000000000000000000900480636d4ce63c14604a575b600080fd5b60506064565b604051605b91906084565b60405180910390f35b60008054905090565b6000819050919050565b607e81606d565b82525050565b6000602082019050609760008301846077565b9291505056fea26469706673582212205000f7abd2c922aa564482fc8480ff0c8cf72628ead87efc4543ae6971f6a3a464736f6c634300080a0033",
  "immutableReferences": {},
  "source": "// SPDX-License-Identifier: MIT\npragma solidity >=0.8.9;\n\ncontract SimpleStorage {\n    uint256 data; //Cette variable est intialisé avec une valeure précise\n\n    function get() public view returns (uint256) {\n        return data;\n    }\n}\n",
  "sourcePath": "/home/vincent/Alyra/Dapp/Exercices/deployementTruffle/contracts/SimpleStorage.sol",
  "compiler": {
    "name": "solc",
    "version": "0.8.10+commit.fc410830.Emscripten.clang"
  },
  "schemaVersion": "3.4.4",
  "updatedAt": "2022-01-18T10:48:19.597Z",
  "networkType": "ethereum",
  "devdoc": {
    "kind": "dev",
    "methods": {},
    "version": 1
  },
  "userdoc": {
    "kind": "user",
    "methods": {},
    "version": 1
  }
}